{
  "_format": "hh-sol-artifact-1",
  "contractName": "RockPaperScissors",
  "sourceName": "contracts/RockPaperScissors.sol",
  "abi": [
    {
      "inputs": [
        {
          "internalType": "address",
          "name": "",
          "type": "address"
        }
      ],
      "name": "_playerVoucher",
      "outputs": [
        {
          "internalType": "bool",
          "name": "",
          "type": "bool"
        }
      ],
      "stateMutability": "view",
      "type": "function"
    },
    {
      "inputs": [],
      "name": "claimWinnings",
      "outputs": [],
      "stateMutability": "nonpayable",
      "type": "function"
    },
    {
      "inputs": [],
      "name": "mostRecentWinner",
      "outputs": [
        {
          "internalType": "address",
          "name": "",
          "type": "address"
        }
      ],
      "stateMutability": "view",
      "type": "function"
    },
    {
      "inputs": [
        {
          "internalType": "string",
          "name": "_chosenItem",
          "type": "string"
        }
      ],
      "name": "playPaperRockScissors",
      "outputs": [],
      "stateMutability": "payable",
      "type": "function"
    },
    {
      "inputs": [],
      "name": "playerNumber",
      "outputs": [
        {
          "internalType": "uint256",
          "name": "",
          "type": "uint256"
        }
      ],
      "stateMutability": "view",
      "type": "function"
    },
    {
      "inputs": [
        {
          "internalType": "address",
          "name": "_playerAddress",
          "type": "address"
        }
      ],
      "name": "playerVoucher",
      "outputs": [
        {
          "internalType": "bool",
          "name": "",
          "type": "bool"
        }
      ],
      "stateMutability": "view",
      "type": "function"
    },
    {
      "inputs": [
        {
          "internalType": "uint256",
          "name": "",
          "type": "uint256"
        }
      ],
      "name": "players",
      "outputs": [
        {
          "internalType": "address payable",
          "name": "playerAddress",
          "type": "address"
        },
        {
          "internalType": "string",
          "name": "chosenItem",
          "type": "string"
        }
      ],
      "stateMutability": "view",
      "type": "function"
    }
  ],
  "bytecode": "0x608060405273a36085f69e2889c224210f603d836748e7dc00886000806101000a81548173ffffffffffffffffffffffffffffffffffffffff021916908373ffffffffffffffffffffffffffffffffffffffff16021790555034801561006457600080fd5b50611cdd806100746000396000f3fe6080604052600436106100705760003560e01c8063b401faf11161004e578063b401faf1146100f9578063d4bcc33c14610110578063ec6e341a1461013b578063f71d96cb1461017857610070565b806313a1f8471461007557806371c92f78146100b25780639b254502146100dd575b600080fd5b34801561008157600080fd5b5061009c600480360381019061009791906117be565b6101b6565b6040516100a991906119d0565b60405180910390f35b3480156100be57600080fd5b506100c76101d6565b6040516100d49190611925565b60405180910390f35b6100f760048036038101906100f29190611810565b610200565b005b34801561010557600080fd5b5061010e610703565b005b34801561011c57600080fd5b50610125610811565b6040516101329190611a2d565b60405180910390f35b34801561014757600080fd5b50610162600480360381019061015d91906117be565b610817565b60405161016f91906119d0565b60405180910390f35b34801561018457600080fd5b5061019f600480360381019061019a9190611855565b61086d565b6040516101ad929190611940565b60405180910390f35b60046020528060005260406000206000915054906101000a900460ff1681565b6000600160009054906101000a900473ffffffffffffffffffffffffffffffffffffffff16905090565b6001151561028783838080601f016020809104026020016040519081016040528093929190818152602001838380828437600081840152601f19601f820116905080830192505050505050506040518060400160405280600481526020017f726f636b00000000000000000000000000000000000000000000000000000000815250610939565b1515148061031b57506001151561031783838080601f016020809104026020016040519081016040528093929190818152602001838380828437600081840152601f19601f820116905080830192505050505050506040518060400160405280600581526020017f7061706572000000000000000000000000000000000000000000000000000000815250610939565b1515145b806103ac5750600115156103a883838080601f016020809104026020016040519081016040528093929190818152602001838380828437600081840152601f19601f820116905080830192505050505050506040518060400160405280600881526020017f73636973736f7273000000000000000000000000000000000000000000000000815250610939565b1515145b6103eb576040517f08c379a00000000000000000000000000000000000000000000000000000000081526004016103e290611a0d565b60405180910390fd5b60011515600460003373ffffffffffffffffffffffffffffffffffffffff1673ffffffffffffffffffffffffffffffffffffffff16815260200190815260200160002060009054906101000a900460ff161515146104f85760008054906101000a900473ffffffffffffffffffffffffffffffffffffffff1673ffffffffffffffffffffffffffffffffffffffff166323b872dd33306302faf0806040518463ffffffff1660e01b81526004016104a493929190611970565b602060405180830381600087803b1580156104be57600080fd5b505af11580156104d2573d6000803e3d6000fd5b505050506040513d601f19601f820116820180604052508101906104f691906117e7565b505b600160025414156105fb5760405180604001604052803373ffffffffffffffffffffffffffffffffffffffff16815260200183838080601f016020809104026020016040519081016040528093929190818152602001838380828437600081840152601f19601f8201169050808301925050505050505081525060036000600254815260200190815260200160002060008201518160000160006101000a81548173ffffffffffffffffffffffffffffffffffffffff021916908373ffffffffffffffffffffffffffffffffffffffff16021790555060208201518160010190805190602001906105ea929190611692565b509050506105f6610992565b6106ff565b60405180604001604052803373ffffffffffffffffffffffffffffffffffffffff16815260200183838080601f016020809104026020016040519081016040528093929190818152602001838380828437600081840152601f19601f8201169050808301925050505050505081525060036000600254815260200190815260200160002060008201518160000160006101000a81548173ffffffffffffffffffffffffffffffffffffffff021916908373ffffffffffffffffffffffffffffffffffffffff16021790555060208201518160010190805190602001906106e2929190611692565b50905050600260008154809291906106f990611b35565b91905055505b5050565b600160009054906101000a900473ffffffffffffffffffffffffffffffffffffffff1673ffffffffffffffffffffffffffffffffffffffff163373ffffffffffffffffffffffffffffffffffffffff161461075d57600080fd5b60008054906101000a900473ffffffffffffffffffffffffffffffffffffffff1673ffffffffffffffffffffffffffffffffffffffff1663a9059cbb336302faf0806040518363ffffffff1660e01b81526004016107bc9291906119a7565b602060405180830381600087803b1580156107d657600080fd5b505af11580156107ea573d6000803e3d6000fd5b505050506040513d601f19601f8201168201806040525081019061080e91906117e7565b50565b60025481565b6000600460008373ffffffffffffffffffffffffffffffffffffffff1673ffffffffffffffffffffffffffffffffffffffff16815260200190815260200160002060009054906101000a900460ff169050919050565b60036020528060005260406000206000915090508060000160009054906101000a900473ffffffffffffffffffffffffffffffffffffffff16908060010180546108b690611b03565b80601f01602080910402602001604051908101604052809291908181526020018280546108e290611b03565b801561092f5780601f106109045761010080835404028352916020019161092f565b820191906000526020600020905b81548152906001019060200180831161091257829003601f168201915b5050505050905082565b60008160405160200161094c91906119eb565b604051602081830303815290604052805190602001208360405160200161097391906119eb565b6040516020818303038152906040528051906020012014905092915050565b60011515610a736003600080815260200190815260200160002060010180546109ba90611b03565b80601f01602080910402602001604051908101604052809291908181526020018280546109e690611b03565b8015610a335780601f10610a0857610100808354040283529160200191610a33565b820191906000526020600020905b815481529060010190602001808311610a1657829003601f168201915b50505050506040518060400160405280600481526020017f726f636b00000000000000000000000000000000000000000000000000000000815250610939565b15151415610ddd5760011515610b5d60036000600181526020019081526020016000206001018054610aa490611b03565b80601f0160208091040260200160405190810160405280929190818152602001828054610ad090611b03565b8015610b1d5780601f10610af257610100808354040283529160200191610b1d565b820191906000526020600020905b815481529060010190602001808311610b0057829003601f168201915b50505050506040518060400160405280600581526020017f7061706572000000000000000000000000000000000000000000000000000000815250610939565b15151415610be957610ba46003600080815260200190815260200160002060000160009054906101000a900473ffffffffffffffffffffffffffffffffffffffff16611588565b610be4600360006001815260200190815260200160002060000160009054906101000a900473ffffffffffffffffffffffffffffffffffffffff166115e3565b610dd8565b60011515610ccb60036000600181526020019081526020016000206001018054610c1290611b03565b80601f0160208091040260200160405190810160405280929190818152602001828054610c3e90611b03565b8015610c8b5780601f10610c6057610100808354040283529160200191610c8b565b820191906000526020600020905b815481529060010190602001808311610c6e57829003601f168201915b50505050506040518060400160405280600881526020017f73636973736f7273000000000000000000000000000000000000000000000000815250610939565b15151415610d5757610d13600360006001815260200190815260200160002060000160009054906101000a900473ffffffffffffffffffffffffffffffffffffffff16611588565b610d526003600080815260200190815260200160002060000160009054906101000a900473ffffffffffffffffffffffffffffffffffffffff166115e3565b610dd7565b610d966003600080815260200190815260200160002060000160009054906101000a900473ffffffffffffffffffffffffffffffffffffffff1661162f565b610dd6600360006001815260200190815260200160002060000160009054906101000a900473ffffffffffffffffffffffffffffffffffffffff1661162f565b5b5b611586565b60011515610ebe600360008081526020019081526020016000206001018054610e0590611b03565b80601f0160208091040260200160405190810160405280929190818152602001828054610e3190611b03565b8015610e7e5780601f10610e5357610100808354040283529160200191610e7e565b820191906000526020600020905b815481529060010190602001808311610e6157829003601f168201915b50505050506040518060400160405280600581526020017f7061706572000000000000000000000000000000000000000000000000000000815250610939565b151514156112285760011515610fa860036000600181526020019081526020016000206001018054610eef90611b03565b80601f0160208091040260200160405190810160405280929190818152602001828054610f1b90611b03565b8015610f685780601f10610f3d57610100808354040283529160200191610f68565b820191906000526020600020905b815481529060010190602001808311610f4b57829003601f168201915b50505050506040518060400160405280600881526020017f73636973736f7273000000000000000000000000000000000000000000000000815250610939565b1515141561103457610fef6003600080815260200190815260200160002060000160009054906101000a900473ffffffffffffffffffffffffffffffffffffffff16611588565b61102f600360006001815260200190815260200160002060000160009054906101000a900473ffffffffffffffffffffffffffffffffffffffff166115e3565b611223565b600115156111166003600060018152602001908152602001600020600101805461105d90611b03565b80601f016020809104026020016040519081016040528092919081815260200182805461108990611b03565b80156110d65780601f106110ab576101008083540402835291602001916110d6565b820191906000526020600020905b8154815290600101906020018083116110b957829003601f168201915b50505050506040518060400160405280600481526020017f726f636b00000000000000000000000000000000000000000000000000000000815250610939565b151514156111a25761115e600360006001815260200190815260200160002060000160009054906101000a900473ffffffffffffffffffffffffffffffffffffffff16611588565b61119d6003600080815260200190815260200160002060000160009054906101000a900473ffffffffffffffffffffffffffffffffffffffff166115e3565b611222565b6111e16003600080815260200190815260200160002060000160009054906101000a900473ffffffffffffffffffffffffffffffffffffffff1661162f565b611221600360006001815260200190815260200160002060000160009054906101000a900473ffffffffffffffffffffffffffffffffffffffff1661162f565b5b5b611585565b6001151561130a6003600060018152602001908152602001600020600101805461125190611b03565b80601f016020809104026020016040519081016040528092919081815260200182805461127d90611b03565b80156112ca5780601f1061129f576101008083540402835291602001916112ca565b820191906000526020600020905b8154815290600101906020018083116112ad57829003601f168201915b50505050506040518060400160405280600481526020017f726f636b00000000000000000000000000000000000000000000000000000000815250610939565b15151415611396576113516003600080815260200190815260200160002060000160009054906101000a900473ffffffffffffffffffffffffffffffffffffffff16611588565b611391600360006001815260200190815260200160002060000160009054906101000a900473ffffffffffffffffffffffffffffffffffffffff166115e3565b611584565b600115156114776003600080815260200190815260200160002060010180546113be90611b03565b80601f01602080910402602001604051908101604052809291908181526020018280546113ea90611b03565b80156114375780601f1061140c57610100808354040283529160200191611437565b820191906000526020600020905b81548152906001019060200180831161141a57829003601f168201915b50505050506040518060400160405280600581526020017f7061706572000000000000000000000000000000000000000000000000000000815250610939565b15151415611503576114bf600360006001815260200190815260200160002060000160009054906101000a900473ffffffffffffffffffffffffffffffffffffffff16611588565b6114fe6003600080815260200190815260200160002060000160009054906101000a900473ffffffffffffffffffffffffffffffffffffffff166115e3565b611583565b6115426003600080815260200190815260200160002060000160009054906101000a900473ffffffffffffffffffffffffffffffffffffffff1661162f565b611582600360006001815260200190815260200160002060000160009054906101000a900473ffffffffffffffffffffffffffffffffffffffff1661162f565b5b5b5b5b565b6000600460008373ffffffffffffffffffffffffffffffffffffffff1673ffffffffffffffffffffffffffffffffffffffff16815260200190815260200160002060006101000a81548160ff02191690831515021790555050565b600060028190555080600160006101000a81548173ffffffffffffffffffffffffffffffffffffffff021916908373ffffffffffffffffffffffffffffffffffffffff16021790555050565b60006002819055506001600460008373ffffffffffffffffffffffffffffffffffffffff1673ffffffffffffffffffffffffffffffffffffffff16815260200190815260200160002060006101000a81548160ff02191690831515021790555050565b82805461169e90611b03565b90600052602060002090601f0160209004810192826116c05760008555611707565b82601f106116d957805160ff1916838001178555611707565b82800160010185558215611707579182015b828111156117065782518255916020019190600101906116eb565b5b5090506117149190611718565b5090565b5b80821115611731576000816000905550600101611719565b5090565b60008135905061174481611c62565b92915050565b60008151905061175981611c79565b92915050565b60008083601f84011261177157600080fd5b8235905067ffffffffffffffff81111561178a57600080fd5b6020830191508360018202830111156117a257600080fd5b9250929050565b6000813590506117b881611c90565b92915050565b6000602082840312156117d057600080fd5b60006117de84828501611735565b91505092915050565b6000602082840312156117f957600080fd5b60006118078482850161174a565b91505092915050565b6000806020838503121561182357600080fd5b600083013567ffffffffffffffff81111561183d57600080fd5b6118498582860161175f565b92509250509250929050565b60006020828403121561186757600080fd5b6000611875848285016117a9565b91505092915050565b61188781611a76565b82525050565b61189681611a64565b82525050565b6118a581611a88565b82525050565b6118b481611abe565b82525050565b60006118c582611a48565b6118cf8185611a53565b93506118df818560208601611ad0565b6118e881611bdc565b840191505092915050565b6000611900605483611a53565b915061190b82611bed565b606082019050919050565b61191f81611ab4565b82525050565b600060208201905061193a600083018461188d565b92915050565b6000604082019050611955600083018561187e565b818103602083015261196781846118ba565b90509392505050565b6000606082019050611985600083018661188d565b611992602083018561188d565b61199f60408301846118ab565b949350505050565b60006040820190506119bc600083018561188d565b6119c960208301846118ab565b9392505050565b60006020820190506119e5600083018461189c565b92915050565b60006020820190508181036000830152611a0581846118ba565b905092915050565b60006020820190508181036000830152611a26816118f3565b9050919050565b6000602082019050611a426000830184611916565b92915050565b600081519050919050565b600082825260208201905092915050565b6000611a6f82611a94565b9050919050565b6000611a8182611a94565b9050919050565b60008115159050919050565b600073ffffffffffffffffffffffffffffffffffffffff82169050919050565b6000819050919050565b6000611ac982611ab4565b9050919050565b60005b83811015611aee578082015181840152602081019050611ad3565b83811115611afd576000848401525b50505050565b60006002820490506001821680611b1b57607f821691505b60208210811415611b2f57611b2e611bad565b5b50919050565b6000611b4082611ab4565b91507fffffffffffffffffffffffffffffffffffffffffffffffffffffffffffffffff821415611b7357611b72611b7e565b5b600182019050919050565b7f4e487b7100000000000000000000000000000000000000000000000000000000600052601160045260246000fd5b7f4e487b7100000000000000000000000000000000000000000000000000000000600052602260045260246000fd5b6000601f19601f8301169050919050565b7f596f75206861766520656974686572206e6f7420696e70757420616e2061707060008201527f726f707269617465206974656d206f72206974656d206e616d65206e6f74207760208201527f72697474656e20696e206c6f776572636173652e000000000000000000000000604082015250565b611c6b81611a64565b8114611c7657600080fd5b50565b611c8281611a88565b8114611c8d57600080fd5b50565b611c9981611ab4565b8114611ca457600080fd5b5056fea2646970667358221220d54595edc4b020727146e82117d67a9dbeb5c9da15e255f33d48a4e9b3665a5464736f6c63430008040033",
  "linkReferences": {},
  "deployedLinkReferences": {}
}