{
  "_format": "hh-sol-artifact-1",
  "contractName": "RockPaperScissors",
  "sourceName": "contracts/RockPaperScissors.sol",
  "abi": [
    {
      "inputs": [],
      "name": "kovanLink",
      "outputs": [
        {
          "internalType": "contract IERC20",
          "name": "",
          "type": "address"
        }
      ],
      "stateMutability": "view",
      "type": "function"
    },
    {
      "inputs": [],
      "name": "mostRecentWinner",
      "outputs": [
        {
          "internalType": "address",
          "name": "",
          "type": "address"
        }
      ],
      "stateMutability": "view",
      "type": "function"
    },
    {
      "inputs": [
        {
          "internalType": "string",
          "name": "_chosenItem",
          "type": "string"
        }
      ],
      "name": "playPaperRockScissors",
      "outputs": [
        {
          "internalType": "string",
          "name": "",
          "type": "string"
        }
      ],
      "stateMutability": "payable",
      "type": "function"
    }
  ],
  "bytecode": "0x608060405273a36085f69e2889c224210f603d836748e7dc00886000806101000a81548173ffffffffffffffffffffffffffffffffffffffff021916908373ffffffffffffffffffffffffffffffffffffffff16021790555034801561006457600080fd5b50610f1f806100746000396000f3fe6080604052600436106100345760003560e01c80633dd29a311461003957806371c92f78146100645780639b2545021461008f575b600080fd5b34801561004557600080fd5b5061004e6100bf565b60405161005b9190610b84565b60405180910390f35b34801561007057600080fd5b506100796100e3565b6040516100869190610b32565b60405180910390f35b6100a960048036038101906100a49190610a68565b61010d565b6040516100b69190610b9f565b60405180910390f35b60008054906101000a900473ffffffffffffffffffffffffffffffffffffffff1681565b6000600160009054906101000a900473ffffffffffffffffffffffffffffffffffffffff16905090565b606060011515610152836040518060400160405280600481526020017f726f636b00000000000000000000000000000000000000000000000000000000815250610513565b151514806101a257506001151561019e836040518060400160405280600581526020017f7061706572000000000000000000000000000000000000000000000000000000815250610513565b1515145b806101ef5750600115156101eb836040518060400160405280600881526020017f73636973736f7273000000000000000000000000000000000000000000000000815250610513565b1515145b61022e576040517f08c379a000000000000000000000000000000000000000000000000000000000815260040161022590610bc1565b60405180910390fd5b6102373361057d565b60008054906101000a900473ffffffffffffffffffffffffffffffffffffffff1673ffffffffffffffffffffffffffffffffffffffff166323b872dd33306302faf0806040518463ffffffff1660e01b815260040161029893929190610b4d565b602060405180830381600087803b1580156102b257600080fd5b505af11580156102c6573d6000803e3d6000fd5b505050506040513d601f19601f820116820180604052508101906102ea9190610a3f565b506000600254111561040457604051806060016040528060025481526020013373ffffffffffffffffffffffffffffffffffffffff168152602001838152506003600060025481526020019081526020016000206000820151816000015560208201518160010160006101000a81548173ffffffffffffffffffffffffffffffffffffffff021916908373ffffffffffffffffffffffffffffffffffffffff16021790555060408201518160020190805190602001906103ab92919061091f565b50905050600260008154809291906103c290610d76565b91905055506040518060400160405280601281526020017f596f752061726520706c617965722074776f0000000000000000000000000000815250905061050e565b604051806060016040528060025481526020013373ffffffffffffffffffffffffffffffffffffffff168152602001838152506003600060025481526020019081526020016000206000820151816000015560208201518160010160006101000a81548173ffffffffffffffffffffffffffffffffffffffff021916908373ffffffffffffffffffffffffffffffffffffffff16021790555060408201518160020190805190602001906104b992919061091f565b50905050600260008154809291906104d090610d76565b91905055506040518060400160405280601281526020017f596f752061726520706c61796572206f6e65000000000000000000000000000081525090505b919050565b6000816040516020016105269190610b9f565b604051602081830303815290604052805190602001208360405160200161054d9190610b9f565b6040516020818303038152906040528051906020012014156105725760019050610577565b600090505b92915050565b610613816040516024016105919190610b32565b6040516020818303038152906040527f2c2ecbc2000000000000000000000000000000000000000000000000000000007bffffffffffffffffffffffffffffffffffffffffffffffffffffffff19166020820180517bffffffffffffffffffffffffffffffffffffffffffffffffffffffff83818316178352505050506108f6565b50565b81548152906001019060200180831161061657829003601f1682019150505050506040518060400160405280600481526020017f726f636b00000000000000000000000000000000000000000000000000000000815250610513565b81548152906001019060200180831161067257829003601f1682019150505050506040518060400160405280600581526020017f7061706572000000000000000000000000000000000000000000000000000000815250610513565b8154815290600101906020018083116106ce57829003601f1682019150505050506040518060400160405280600881526020017f73636973736f7273000000000000000000000000000000000000000000000000815250610513565b81548152906001019060200180831161072a57829003601f1682019150505050506040518060400160405280600581526020017f7061706572000000000000000000000000000000000000000000000000000000815250610513565b81548152906001019060200180831161078657829003601f1682019150505050506040518060400160405280600881526020017f73636973736f7273000000000000000000000000000000000000000000000000815250610513565b8154815290600101906020018083116107e257829003601f1682019150505050506040518060400160405280600481526020017f726f636b00000000000000000000000000000000000000000000000000000000815250610513565b81548152906001019060200180831161083e57829003601f1682019150505050506040518060400160405280600481526020017f726f636b00000000000000000000000000000000000000000000000000000000815250610513565b81548152906001019060200180831161089a57829003601f1682019150505050506040518060400160405280600581526020017f7061706572000000000000000000000000000000000000000000000000000000815250610513565b60008151905060006a636f6e736f6c652e6c6f679050602083016000808483855afa5050505050565b82805461092b90610d13565b90600052602060002090601f01602090048101928261094d5760008555610994565b82601f1061096657805160ff1916838001178555610994565b82800160010185558215610994579182015b82811115610993578251825591602001919060010190610978565b5b5090506109a191906109a5565b5090565b5b808211156109be5760008160009055506001016109a6565b5090565b60006109d56109d084610c06565b610be1565b9050828152602081018484840111156109ed57600080fd5b6109f8848285610cd1565b509392505050565b600081519050610a0f81610ed2565b92915050565b600082601f830112610a2657600080fd5b8135610a368482602086016109c2565b91505092915050565b600060208284031215610a5157600080fd5b6000610a5f84828501610a00565b91505092915050565b600060208284031215610a7a57600080fd5b600082013567ffffffffffffffff811115610a9457600080fd5b610aa084828501610a15565b91505092915050565b610ab281610c53565b82525050565b610ac181610c9b565b82525050565b610ad081610cbf565b82525050565b6000610ae182610c37565b610aeb8185610c42565b9350610afb818560208601610ce0565b610b0481610e4c565b840191505092915050565b6000610b1c605483610c42565b9150610b2782610e5d565b606082019050919050565b6000602082019050610b476000830184610aa9565b92915050565b6000606082019050610b626000830186610aa9565b610b6f6020830185610aa9565b610b7c6040830184610ac7565b949350505050565b6000602082019050610b996000830184610ab8565b92915050565b60006020820190508181036000830152610bb98184610ad6565b905092915050565b60006020820190508181036000830152610bda81610b0f565b9050919050565b6000610beb610bfc565b9050610bf78282610d45565b919050565b6000604051905090565b600067ffffffffffffffff821115610c2157610c20610e1d565b5b610c2a82610e4c565b9050602081019050919050565b600081519050919050565b600082825260208201905092915050565b6000610c5e82610c71565b9050919050565b60008115159050919050565b600073ffffffffffffffffffffffffffffffffffffffff82169050919050565b6000819050919050565b6000610ca682610cad565b9050919050565b6000610cb882610c71565b9050919050565b6000610cca82610c91565b9050919050565b82818337600083830152505050565b60005b83811015610cfe578082015181840152602081019050610ce3565b83811115610d0d576000848401525b50505050565b60006002820490506001821680610d2b57607f821691505b60208210811415610d3f57610d3e610dee565b5b50919050565b610d4e82610e4c565b810181811067ffffffffffffffff82111715610d6d57610d6c610e1d565b5b80604052505050565b6000610d8182610c91565b91507fffffffffffffffffffffffffffffffffffffffffffffffffffffffffffffffff821415610db457610db3610dbf565b5b600182019050919050565b7f4e487b7100000000000000000000000000000000000000000000000000000000600052601160045260246000fd5b7f4e487b7100000000000000000000000000000000000000000000000000000000600052602260045260246000fd5b7f4e487b7100000000000000000000000000000000000000000000000000000000600052604160045260246000fd5b6000601f19601f8301169050919050565b7f596f75206861766520656974686572206e6f7420696e70757420616e2061707060008201527f726f707269617465206974656d206f72206974656d206e616d65206e6f74207760208201527f72697474656e20696e206c6f776572636173652e000000000000000000000000604082015250565b610edb81610c65565b8114610ee657600080fd5b5056fea2646970667358221220017be2cbce7d5b6c2e777a2ef17cfb6a87eae0b371b9a7b7b19a553f059f60e064736f6c63430008040033",
  "linkReferences": {},
  "deployedLinkReferences": {}
}