{
  "_format": "hh-sol-artifact-1",
  "contractName": "RockPaperScissors",
  "sourceName": "contracts/RockPaperScissors.sol",
  "abi": [
    {
      "inputs": [
        {
          "internalType": "address",
          "name": "_approver",
          "type": "address"
        }
      ],
      "name": "_approvedLink",
      "outputs": [
        {
          "internalType": "bool",
          "name": "",
          "type": "bool"
        }
      ],
      "stateMutability": "view",
      "type": "function"
    },
    {
      "inputs": [],
      "name": "approveLink",
      "outputs": [],
      "stateMutability": "nonpayable",
      "type": "function"
    },
    {
      "inputs": [
        {
          "internalType": "address",
          "name": "",
          "type": "address"
        }
      ],
      "name": "approvedLink",
      "outputs": [
        {
          "internalType": "bool",
          "name": "",
          "type": "bool"
        }
      ],
      "stateMutability": "view",
      "type": "function"
    },
    {
      "inputs": [],
      "name": "mostRecentWinner",
      "outputs": [
        {
          "internalType": "address",
          "name": "",
          "type": "address"
        }
      ],
      "stateMutability": "view",
      "type": "function"
    },
    {
      "inputs": [
        {
          "internalType": "string",
          "name": "_chosenItem",
          "type": "string"
        }
      ],
      "name": "playPaperRockScissors",
      "outputs": [
        {
          "internalType": "string",
          "name": "",
          "type": "string"
        }
      ],
      "stateMutability": "payable",
      "type": "function"
    },
    {
      "inputs": [],
      "name": "playerNumber",
      "outputs": [
        {
          "internalType": "uint256",
          "name": "",
          "type": "uint256"
        }
      ],
      "stateMutability": "view",
      "type": "function"
    }
  ],
  "bytecode": "0x608060405273a36085f69e2889c224210f603d836748e7dc00886000806101000a81548173ffffffffffffffffffffffffffffffffffffffff021916908373ffffffffffffffffffffffffffffffffffffffff16021790555034801561006457600080fd5b50611260806100746000396000f3fe6080604052600436106100555760003560e01c80632f9b19db1461005a578063604d09441461009757806371c92f78146100d45780639b254502146100ff578063d02bfea11461012f578063d4bcc33c14610146575b600080fd5b34801561006657600080fd5b50610081600480360381019061007c9190610c7f565b610171565b60405161008e9190610e48565b60405180910390f35b3480156100a357600080fd5b506100be60048036038101906100b99190610c7f565b6101c7565b6040516100cb9190610e48565b60405180910390f35b3480156100e057600080fd5b506100e96101e7565b6040516100f69190610dcd565b60405180910390f35b61011960048036038101906101149190610cd1565b610211565b6040516101269190610e63565b60405180910390f35b34801561013b57600080fd5b506101446106f7565b005b34801561015257600080fd5b5061015b610806565b6040516101689190610ec5565b60405180910390f35b6000600160008373ffffffffffffffffffffffffffffffffffffffff1673ffffffffffffffffffffffffffffffffffffffff16815260200190815260200160002060009054906101000a900460ff169050919050565b60016020528060005260406000206000915054906101000a900460ff1681565b6000600260009054906101000a900473ffffffffffffffffffffffffffffffffffffffff16905090565b606060011515600160003373ffffffffffffffffffffffffffffffffffffffff1673ffffffffffffffffffffffffffffffffffffffff16815260200190815260200160002060009054906101000a900460ff161515146102a6576040517f08c379a000000000000000000000000000000000000000000000000000000000815260040161029d90610ea5565b60405180910390fd5b600115156102e9836040518060400160405280600481526020017f726f636b0000000000000000000000000000000000000000000000000000000081525061080c565b15151480610339575060011515610335836040518060400160405280600581526020017f706170657200000000000000000000000000000000000000000000000000000081525061080c565b1515145b80610386575060011515610382836040518060400160405280600881526020017f73636973736f727300000000000000000000000000000000000000000000000081525061080c565b1515145b6103c5576040517f08c379a00000000000000000000000000000000000000000000000000000000081526004016103bc90610e85565b60405180910390fd5b60008054906101000a900473ffffffffffffffffffffffffffffffffffffffff1673ffffffffffffffffffffffffffffffffffffffff166323b872dd33306706f05b59d3b200006040518463ffffffff1660e01b815260040161042a93929190610de8565b602060405180830381600087803b15801561044457600080fd5b505af1158015610458573d6000803e3d6000fd5b505050506040513d601f19601f8201168201806040525081019061047c9190610ca8565b50600060035411156105bf57604051806080016040528060035481526020013373ffffffffffffffffffffffffffffffffffffffff168152602001838152602001600115158152506004600060035481526020019081526020016000206000820151816000015560208201518160010160006101000a81548173ffffffffffffffffffffffffffffffffffffffff021916908373ffffffffffffffffffffffffffffffffffffffff1602179055506040820151816002019080519060200190610546929190610b4a565b5060608201518160030160006101000a81548160ff0219169083151502179055509050506003600081548092919061057d90611051565b91905055506040518060400160405280601281526020017f596f752061726520706c617965722074776f000000000000000000000000000081525090506106f2565b604051806080016040528060035481526020013373ffffffffffffffffffffffffffffffffffffffff168152602001838152602001600115158152506004600060035481526020019081526020016000206000820151816000015560208201518160010160006101000a81548173ffffffffffffffffffffffffffffffffffffffff021916908373ffffffffffffffffffffffffffffffffffffffff160217905550604082015181600201908051906020019061067d929190610b4a565b5060608201518160030160006101000a81548160ff021916908315150217905550905050600360008154809291906106b490611051565b91905055506040518060400160405280601281526020017f596f752061726520706c61796572206f6e65000000000000000000000000000081525090505b919050565b60008054906101000a900473ffffffffffffffffffffffffffffffffffffffff1673ffffffffffffffffffffffffffffffffffffffff1663095ea7b3336706f05b59d3b200006040518363ffffffff1660e01b815260040161075a929190610e1f565b602060405180830381600087803b15801561077457600080fd5b505af1158015610788573d6000803e3d6000fd5b505050506040513d601f19601f820116820180604052508101906107ac9190610ca8565b5060018060003373ffffffffffffffffffffffffffffffffffffffff1673ffffffffffffffffffffffffffffffffffffffff16815260200190815260200160002060006101000a81548160ff021916908315150217905550565b60035481565b600080826040516020016108209190610e63565b60405160208183030381529060405280519060200120846040516020016108479190610e63565b604051602081830303815290604052805190602001201490508091505092915050565b81548152906001019060200180831161086a57829003601f1682019150505050506040518060400160405280600481526020017f726f636b0000000000000000000000000000000000000000000000000000000081525061080c565b8154815290600101906020018083116108c657829003601f1682019150505050506040518060400160405280600581526020017f706170657200000000000000000000000000000000000000000000000000000081525061080c565b81548152906001019060200180831161092257829003601f1682019150505050506040518060400160405280600881526020017f73636973736f727300000000000000000000000000000000000000000000000081525061080c565b81548152906001019060200180831161097e57829003601f1682019150505050506040518060400160405280600581526020017f706170657200000000000000000000000000000000000000000000000000000081525061080c565b8154815290600101906020018083116109da57829003601f1682019150505050506040518060400160405280600881526020017f73636973736f727300000000000000000000000000000000000000000000000081525061080c565b815481529060010190602001808311610a3657829003601f1682019150505050506040518060400160405280600481526020017f726f636b0000000000000000000000000000000000000000000000000000000081525061080c565b815481529060010190602001808311610a9257829003601f1682019150505050506040518060400160405280600481526020017f726f636b0000000000000000000000000000000000000000000000000000000081525061080c565b815481529060010190602001808311610aee57829003601f1682019150505050506040518060400160405280600581526020017f706170657200000000000000000000000000000000000000000000000000000081525061080c565b828054610b5690610fee565b90600052602060002090601f016020900481019282610b785760008555610bbf565b82601f10610b9157805160ff1916838001178555610bbf565b82800160010185558215610bbf579182015b82811115610bbe578251825591602001919060010190610ba3565b5b509050610bcc9190610bd0565b5090565b5b80821115610be9576000816000905550600101610bd1565b5090565b6000610c00610bfb84610f05565b610ee0565b905082815260208101848484011115610c1857600080fd5b610c23848285610fac565b509392505050565b600081359050610c3a816111fc565b92915050565b600081519050610c4f81611213565b92915050565b600082601f830112610c6657600080fd5b8135610c76848260208601610bed565b91505092915050565b600060208284031215610c9157600080fd5b6000610c9f84828501610c2b565b91505092915050565b600060208284031215610cba57600080fd5b6000610cc884828501610c40565b91505092915050565b600060208284031215610ce357600080fd5b600082013567ffffffffffffffff811115610cfd57600080fd5b610d0984828501610c55565b91505092915050565b610d1b81610f52565b82525050565b610d2a81610f64565b82525050565b610d3981610f9a565b82525050565b6000610d4a82610f36565b610d548185610f41565b9350610d64818560208601610fbb565b610d6d81611127565b840191505092915050565b6000610d85605483610f41565b9150610d9082611138565b606082019050919050565b6000610da8602883610f41565b9150610db3826111ad565b604082019050919050565b610dc781610f90565b82525050565b6000602082019050610de26000830184610d12565b92915050565b6000606082019050610dfd6000830186610d12565b610e0a6020830185610d12565b610e176040830184610d30565b949350505050565b6000604082019050610e346000830185610d12565b610e416020830184610d30565b9392505050565b6000602082019050610e5d6000830184610d21565b92915050565b60006020820190508181036000830152610e7d8184610d3f565b905092915050565b60006020820190508181036000830152610e9e81610d78565b9050919050565b60006020820190508181036000830152610ebe81610d9b565b9050919050565b6000602082019050610eda6000830184610dbe565b92915050565b6000610eea610efb565b9050610ef68282611020565b919050565b6000604051905090565b600067ffffffffffffffff821115610f2057610f1f6110f8565b5b610f2982611127565b9050602081019050919050565b600081519050919050565b600082825260208201905092915050565b6000610f5d82610f70565b9050919050565b60008115159050919050565b600073ffffffffffffffffffffffffffffffffffffffff82169050919050565b6000819050919050565b6000610fa582610f90565b9050919050565b82818337600083830152505050565b60005b83811015610fd9578082015181840152602081019050610fbe565b83811115610fe8576000848401525b50505050565b6000600282049050600182168061100657607f821691505b6020821081141561101a576110196110c9565b5b50919050565b61102982611127565b810181811067ffffffffffffffff82111715611048576110476110f8565b5b80604052505050565b600061105c82610f90565b91507fffffffffffffffffffffffffffffffffffffffffffffffffffffffffffffffff82141561108f5761108e61109a565b5b600182019050919050565b7f4e487b7100000000000000000000000000000000000000000000000000000000600052601160045260246000fd5b7f4e487b7100000000000000000000000000000000000000000000000000000000600052602260045260246000fd5b7f4e487b7100000000000000000000000000000000000000000000000000000000600052604160045260246000fd5b6000601f19601f8301169050919050565b7f596f75206861766520656974686572206e6f7420696e70757420616e2061707060008201527f726f707269617465206974656d206f72206974656d206e616d65206e6f74207760208201527f72697474656e20696e206c6f776572636173652e000000000000000000000000604082015250565b7f596f752068617665206e6f7420617070726f76656420636f6e7472616374206660008201527f6f7220244c494e4b000000000000000000000000000000000000000000000000602082015250565b61120581610f52565b811461121057600080fd5b50565b61121c81610f64565b811461122757600080fd5b5056fea2646970667358221220876a0d7dfbd60283bb9ff3166658c4b259cdf9864d8151f6f07b6fa02b205ccb64736f6c63430008040033",
  "linkReferences": {},
  "deployedLinkReferences": {}
}