{
  "_format": "hh-sol-artifact-1",
  "contractName": "RockPaperScissors",
  "sourceName": "contracts/RockPaperScissors.sol",
  "abi": [
    {
      "inputs": [
        {
          "internalType": "address",
          "name": "",
          "type": "address"
        }
      ],
      "name": "_playerVoucher",
      "outputs": [
        {
          "internalType": "bool",
          "name": "",
          "type": "bool"
        }
      ],
      "stateMutability": "view",
      "type": "function"
    },
    {
      "inputs": [],
      "name": "claimWinnings",
      "outputs": [],
      "stateMutability": "nonpayable",
      "type": "function"
    },
    {
      "inputs": [],
      "name": "mostRecentWinner",
      "outputs": [
        {
          "internalType": "address",
          "name": "",
          "type": "address"
        }
      ],
      "stateMutability": "view",
      "type": "function"
    },
    {
      "inputs": [
        {
          "internalType": "string",
          "name": "_chosenItem",
          "type": "string"
        }
      ],
      "name": "playPaperRockScissors",
      "outputs": [],
      "stateMutability": "payable",
      "type": "function"
    },
    {
      "inputs": [],
      "name": "playerNumber",
      "outputs": [
        {
          "internalType": "uint256",
          "name": "",
          "type": "uint256"
        }
      ],
      "stateMutability": "view",
      "type": "function"
    },
    {
      "inputs": [
        {
          "internalType": "address",
          "name": "_playerAddress",
          "type": "address"
        }
      ],
      "name": "playerVoucher",
      "outputs": [
        {
          "internalType": "bool",
          "name": "",
          "type": "bool"
        }
      ],
      "stateMutability": "view",
      "type": "function"
    },
    {
      "inputs": [
        {
          "internalType": "uint256",
          "name": "",
          "type": "uint256"
        }
      ],
      "name": "players",
      "outputs": [
        {
          "internalType": "address payable",
          "name": "playerAddress",
          "type": "address"
        },
        {
          "internalType": "string",
          "name": "chosenItem",
          "type": "string"
        }
      ],
      "stateMutability": "view",
      "type": "function"
    }
  ],
  "bytecode": "0x608060405273a36085f69e2889c224210f603d836748e7dc00886000806101000a81548173ffffffffffffffffffffffffffffffffffffffff021916908373ffffffffffffffffffffffffffffffffffffffff16021790555034801561006457600080fd5b50611cdb806100746000396000f3fe6080604052600436106100705760003560e01c8063b401faf11161004e578063b401faf1146100f9578063d4bcc33c14610110578063ec6e341a1461013b578063f71d96cb1461017857610070565b806313a1f8471461007557806371c92f78146100b25780639b254502146100dd575b600080fd5b34801561008157600080fd5b5061009c600480360381019061009791906117bc565b6101b6565b6040516100a991906119ce565b60405180910390f35b3480156100be57600080fd5b506100c76101d6565b6040516100d49190611923565b60405180910390f35b6100f760048036038101906100f2919061180e565b610200565b005b34801561010557600080fd5b5061010e610702565b005b34801561011c57600080fd5b5061012561080f565b6040516101329190611a2b565b60405180910390f35b34801561014757600080fd5b50610162600480360381019061015d91906117bc565b610815565b60405161016f91906119ce565b60405180910390f35b34801561018457600080fd5b5061019f600480360381019061019a9190611853565b61086b565b6040516101ad92919061193e565b60405180910390f35b60046020528060005260406000206000915054906101000a900460ff1681565b6000600160009054906101000a900473ffffffffffffffffffffffffffffffffffffffff16905090565b6001151561028783838080601f016020809104026020016040519081016040528093929190818152602001838380828437600081840152601f19601f820116905080830192505050505050506040518060400160405280600481526020017f726f636b00000000000000000000000000000000000000000000000000000000815250610937565b1515148061031b57506001151561031783838080601f016020809104026020016040519081016040528093929190818152602001838380828437600081840152601f19601f820116905080830192505050505050506040518060400160405280600581526020017f7061706572000000000000000000000000000000000000000000000000000000815250610937565b1515145b806103ac5750600115156103a883838080601f016020809104026020016040519081016040528093929190818152602001838380828437600081840152601f19601f820116905080830192505050505050506040518060400160405280600881526020017f73636973736f7273000000000000000000000000000000000000000000000000815250610937565b1515145b6103eb576040517f08c379a00000000000000000000000000000000000000000000000000000000081526004016103e290611a0b565b60405180910390fd5b60011515600460003373ffffffffffffffffffffffffffffffffffffffff1673ffffffffffffffffffffffffffffffffffffffff16815260200190815260200160002060009054906101000a900460ff161515146104f75760008054906101000a900473ffffffffffffffffffffffffffffffffffffffff1673ffffffffffffffffffffffffffffffffffffffff166323b872dd3330624c4b406040518463ffffffff1660e01b81526004016104a39392919061196e565b602060405180830381600087803b1580156104bd57600080fd5b505af11580156104d1573d6000803e3d6000fd5b505050506040513d601f19601f820116820180604052508101906104f591906117e5565b505b600160025414156105fa5760405180604001604052803373ffffffffffffffffffffffffffffffffffffffff16815260200183838080601f016020809104026020016040519081016040528093929190818152602001838380828437600081840152601f19601f8201169050808301925050505050505081525060036000600254815260200190815260200160002060008201518160000160006101000a81548173ffffffffffffffffffffffffffffffffffffffff021916908373ffffffffffffffffffffffffffffffffffffffff16021790555060208201518160010190805190602001906105e9929190611690565b509050506105f5610990565b6106fe565b60405180604001604052803373ffffffffffffffffffffffffffffffffffffffff16815260200183838080601f016020809104026020016040519081016040528093929190818152602001838380828437600081840152601f19601f8201169050808301925050505050505081525060036000600254815260200190815260200160002060008201518160000160006101000a81548173ffffffffffffffffffffffffffffffffffffffff021916908373ffffffffffffffffffffffffffffffffffffffff16021790555060208201518160010190805190602001906106e1929190611690565b50905050600260008154809291906106f890611b33565b91905055505b5050565b600160009054906101000a900473ffffffffffffffffffffffffffffffffffffffff1673ffffffffffffffffffffffffffffffffffffffff163373ffffffffffffffffffffffffffffffffffffffff161461075c57600080fd5b60008054906101000a900473ffffffffffffffffffffffffffffffffffffffff1673ffffffffffffffffffffffffffffffffffffffff1663a9059cbb33624c4b406040518363ffffffff1660e01b81526004016107ba9291906119a5565b602060405180830381600087803b1580156107d457600080fd5b505af11580156107e8573d6000803e3d6000fd5b505050506040513d601f19601f8201168201806040525081019061080c91906117e5565b50565b60025481565b6000600460008373ffffffffffffffffffffffffffffffffffffffff1673ffffffffffffffffffffffffffffffffffffffff16815260200190815260200160002060009054906101000a900460ff169050919050565b60036020528060005260406000206000915090508060000160009054906101000a900473ffffffffffffffffffffffffffffffffffffffff16908060010180546108b490611b01565b80601f01602080910402602001604051908101604052809291908181526020018280546108e090611b01565b801561092d5780601f106109025761010080835404028352916020019161092d565b820191906000526020600020905b81548152906001019060200180831161091057829003601f168201915b5050505050905082565b60008160405160200161094a91906119e9565b604051602081830303815290604052805190602001208360405160200161097191906119e9565b6040516020818303038152906040528051906020012014905092915050565b60011515610a716003600080815260200190815260200160002060010180546109b890611b01565b80601f01602080910402602001604051908101604052809291908181526020018280546109e490611b01565b8015610a315780601f10610a0657610100808354040283529160200191610a31565b820191906000526020600020905b815481529060010190602001808311610a1457829003601f168201915b50505050506040518060400160405280600481526020017f726f636b00000000000000000000000000000000000000000000000000000000815250610937565b15151415610ddb5760011515610b5b60036000600181526020019081526020016000206001018054610aa290611b01565b80601f0160208091040260200160405190810160405280929190818152602001828054610ace90611b01565b8015610b1b5780601f10610af057610100808354040283529160200191610b1b565b820191906000526020600020905b815481529060010190602001808311610afe57829003601f168201915b50505050506040518060400160405280600581526020017f7061706572000000000000000000000000000000000000000000000000000000815250610937565b15151415610be757610ba26003600080815260200190815260200160002060000160009054906101000a900473ffffffffffffffffffffffffffffffffffffffff16611586565b610be2600360006001815260200190815260200160002060000160009054906101000a900473ffffffffffffffffffffffffffffffffffffffff166115e1565b610dd6565b60011515610cc960036000600181526020019081526020016000206001018054610c1090611b01565b80601f0160208091040260200160405190810160405280929190818152602001828054610c3c90611b01565b8015610c895780601f10610c5e57610100808354040283529160200191610c89565b820191906000526020600020905b815481529060010190602001808311610c6c57829003601f168201915b50505050506040518060400160405280600881526020017f73636973736f7273000000000000000000000000000000000000000000000000815250610937565b15151415610d5557610d11600360006001815260200190815260200160002060000160009054906101000a900473ffffffffffffffffffffffffffffffffffffffff16611586565b610d506003600080815260200190815260200160002060000160009054906101000a900473ffffffffffffffffffffffffffffffffffffffff166115e1565b610dd5565b610d946003600080815260200190815260200160002060000160009054906101000a900473ffffffffffffffffffffffffffffffffffffffff1661162d565b610dd4600360006001815260200190815260200160002060000160009054906101000a900473ffffffffffffffffffffffffffffffffffffffff1661162d565b5b5b611584565b60011515610ebc600360008081526020019081526020016000206001018054610e0390611b01565b80601f0160208091040260200160405190810160405280929190818152602001828054610e2f90611b01565b8015610e7c5780601f10610e5157610100808354040283529160200191610e7c565b820191906000526020600020905b815481529060010190602001808311610e5f57829003601f168201915b50505050506040518060400160405280600581526020017f7061706572000000000000000000000000000000000000000000000000000000815250610937565b151514156112265760011515610fa660036000600181526020019081526020016000206001018054610eed90611b01565b80601f0160208091040260200160405190810160405280929190818152602001828054610f1990611b01565b8015610f665780601f10610f3b57610100808354040283529160200191610f66565b820191906000526020600020905b815481529060010190602001808311610f4957829003601f168201915b50505050506040518060400160405280600881526020017f73636973736f7273000000000000000000000000000000000000000000000000815250610937565b1515141561103257610fed6003600080815260200190815260200160002060000160009054906101000a900473ffffffffffffffffffffffffffffffffffffffff16611586565b61102d600360006001815260200190815260200160002060000160009054906101000a900473ffffffffffffffffffffffffffffffffffffffff166115e1565b611221565b600115156111146003600060018152602001908152602001600020600101805461105b90611b01565b80601f016020809104026020016040519081016040528092919081815260200182805461108790611b01565b80156110d45780601f106110a9576101008083540402835291602001916110d4565b820191906000526020600020905b8154815290600101906020018083116110b757829003601f168201915b50505050506040518060400160405280600481526020017f726f636b00000000000000000000000000000000000000000000000000000000815250610937565b151514156111a05761115c600360006001815260200190815260200160002060000160009054906101000a900473ffffffffffffffffffffffffffffffffffffffff16611586565b61119b6003600080815260200190815260200160002060000160009054906101000a900473ffffffffffffffffffffffffffffffffffffffff166115e1565b611220565b6111df6003600080815260200190815260200160002060000160009054906101000a900473ffffffffffffffffffffffffffffffffffffffff1661162d565b61121f600360006001815260200190815260200160002060000160009054906101000a900473ffffffffffffffffffffffffffffffffffffffff1661162d565b5b5b611583565b600115156113086003600060018152602001908152602001600020600101805461124f90611b01565b80601f016020809104026020016040519081016040528092919081815260200182805461127b90611b01565b80156112c85780601f1061129d576101008083540402835291602001916112c8565b820191906000526020600020905b8154815290600101906020018083116112ab57829003601f168201915b50505050506040518060400160405280600481526020017f726f636b00000000000000000000000000000000000000000000000000000000815250610937565b151514156113945761134f6003600080815260200190815260200160002060000160009054906101000a900473ffffffffffffffffffffffffffffffffffffffff16611586565b61138f600360006001815260200190815260200160002060000160009054906101000a900473ffffffffffffffffffffffffffffffffffffffff166115e1565b611582565b600115156114756003600080815260200190815260200160002060010180546113bc90611b01565b80601f01602080910402602001604051908101604052809291908181526020018280546113e890611b01565b80156114355780601f1061140a57610100808354040283529160200191611435565b820191906000526020600020905b81548152906001019060200180831161141857829003601f168201915b50505050506040518060400160405280600581526020017f7061706572000000000000000000000000000000000000000000000000000000815250610937565b15151415611501576114bd600360006001815260200190815260200160002060000160009054906101000a900473ffffffffffffffffffffffffffffffffffffffff16611586565b6114fc6003600080815260200190815260200160002060000160009054906101000a900473ffffffffffffffffffffffffffffffffffffffff166115e1565b611581565b6115406003600080815260200190815260200160002060000160009054906101000a900473ffffffffffffffffffffffffffffffffffffffff1661162d565b611580600360006001815260200190815260200160002060000160009054906101000a900473ffffffffffffffffffffffffffffffffffffffff1661162d565b5b5b5b5b565b6000600460008373ffffffffffffffffffffffffffffffffffffffff1673ffffffffffffffffffffffffffffffffffffffff16815260200190815260200160002060006101000a81548160ff02191690831515021790555050565b600060028190555080600160006101000a81548173ffffffffffffffffffffffffffffffffffffffff021916908373ffffffffffffffffffffffffffffffffffffffff16021790555050565b60006002819055506001600460008373ffffffffffffffffffffffffffffffffffffffff1673ffffffffffffffffffffffffffffffffffffffff16815260200190815260200160002060006101000a81548160ff02191690831515021790555050565b82805461169c90611b01565b90600052602060002090601f0160209004810192826116be5760008555611705565b82601f106116d757805160ff1916838001178555611705565b82800160010185558215611705579182015b828111156117045782518255916020019190600101906116e9565b5b5090506117129190611716565b5090565b5b8082111561172f576000816000905550600101611717565b5090565b60008135905061174281611c60565b92915050565b60008151905061175781611c77565b92915050565b60008083601f84011261176f57600080fd5b8235905067ffffffffffffffff81111561178857600080fd5b6020830191508360018202830111156117a057600080fd5b9250929050565b6000813590506117b681611c8e565b92915050565b6000602082840312156117ce57600080fd5b60006117dc84828501611733565b91505092915050565b6000602082840312156117f757600080fd5b600061180584828501611748565b91505092915050565b6000806020838503121561182157600080fd5b600083013567ffffffffffffffff81111561183b57600080fd5b6118478582860161175d565b92509250509250929050565b60006020828403121561186557600080fd5b6000611873848285016117a7565b91505092915050565b61188581611a74565b82525050565b61189481611a62565b82525050565b6118a381611a86565b82525050565b6118b281611abc565b82525050565b60006118c382611a46565b6118cd8185611a51565b93506118dd818560208601611ace565b6118e681611bda565b840191505092915050565b60006118fe605483611a51565b915061190982611beb565b606082019050919050565b61191d81611ab2565b82525050565b6000602082019050611938600083018461188b565b92915050565b6000604082019050611953600083018561187c565b818103602083015261196581846118b8565b90509392505050565b6000606082019050611983600083018661188b565b611990602083018561188b565b61199d60408301846118a9565b949350505050565b60006040820190506119ba600083018561188b565b6119c760208301846118a9565b9392505050565b60006020820190506119e3600083018461189a565b92915050565b60006020820190508181036000830152611a0381846118b8565b905092915050565b60006020820190508181036000830152611a24816118f1565b9050919050565b6000602082019050611a406000830184611914565b92915050565b600081519050919050565b600082825260208201905092915050565b6000611a6d82611a92565b9050919050565b6000611a7f82611a92565b9050919050565b60008115159050919050565b600073ffffffffffffffffffffffffffffffffffffffff82169050919050565b6000819050919050565b6000611ac782611ab2565b9050919050565b60005b83811015611aec578082015181840152602081019050611ad1565b83811115611afb576000848401525b50505050565b60006002820490506001821680611b1957607f821691505b60208210811415611b2d57611b2c611bab565b5b50919050565b6000611b3e82611ab2565b91507fffffffffffffffffffffffffffffffffffffffffffffffffffffffffffffffff821415611b7157611b70611b7c565b5b600182019050919050565b7f4e487b7100000000000000000000000000000000000000000000000000000000600052601160045260246000fd5b7f4e487b7100000000000000000000000000000000000000000000000000000000600052602260045260246000fd5b6000601f19601f8301169050919050565b7f596f75206861766520656974686572206e6f7420696e70757420616e2061707060008201527f726f707269617465206974656d206f72206974656d206e616d65206e6f74207760208201527f72697474656e20696e206c6f776572636173652e000000000000000000000000604082015250565b611c6981611a62565b8114611c7457600080fd5b50565b611c8081611a86565b8114611c8b57600080fd5b50565b611c9781611ab2565b8114611ca257600080fd5b5056fea2646970667358221220ea7e43ee30da7d8b2bb99739b851575164fe9c0cc876a5f3d325ff59a9a9952064736f6c63430008040033",
  "linkReferences": {},
  "deployedLinkReferences": {}
}