{
  "_format": "hh-sol-artifact-1",
  "contractName": "RockPaperScissors",
  "sourceName": "contracts/RockPaperScissors.sol",
  "abi": [
    {
      "inputs": [
        {
          "internalType": "address",
          "name": "_approver",
          "type": "address"
        }
      ],
      "name": "_approvedLink",
      "outputs": [
        {
          "internalType": "bool",
          "name": "",
          "type": "bool"
        }
      ],
      "stateMutability": "view",
      "type": "function"
    },
    {
      "inputs": [],
      "name": "approveLink",
      "outputs": [],
      "stateMutability": "nonpayable",
      "type": "function"
    },
    {
      "inputs": [
        {
          "internalType": "address",
          "name": "",
          "type": "address"
        }
      ],
      "name": "approvedLink",
      "outputs": [
        {
          "internalType": "bool",
          "name": "",
          "type": "bool"
        }
      ],
      "stateMutability": "view",
      "type": "function"
    },
    {
      "inputs": [
        {
          "internalType": "string",
          "name": "_chosenItem",
          "type": "string"
        }
      ],
      "name": "playPaperRockScissors",
      "outputs": [
        {
          "internalType": "string",
          "name": "",
          "type": "string"
        }
      ],
      "stateMutability": "payable",
      "type": "function"
    },
    {
      "inputs": [],
      "name": "playerNumber",
      "outputs": [
        {
          "internalType": "uint256",
          "name": "",
          "type": "uint256"
        }
      ],
      "stateMutability": "view",
      "type": "function"
    }
  ],
  "bytecode": "0x608060405273a36085f69e2889c224210f603d836748e7dc00886000806101000a81548173ffffffffffffffffffffffffffffffffffffffff021916908373ffffffffffffffffffffffffffffffffffffffff16021790555034801561006457600080fd5b506111e5806100746000396000f3fe60806040526004361061004a5760003560e01c80632f9b19db1461004f578063604d09441461008c5780639b254502146100c9578063d02bfea1146100f9578063d4bcc33c14610110575b600080fd5b34801561005b57600080fd5b5061007660048036038101906100719190610c1f565b61013b565b6040516100839190610dcd565b60405180910390f35b34801561009857600080fd5b506100b360048036038101906100ae9190610c1f565b610191565b6040516100c09190610dcd565b60405180910390f35b6100e360048036038101906100de9190610c71565b6101b1565b6040516100f09190610de8565b60405180910390f35b34801561010557600080fd5b5061010e610697565b005b34801561011c57600080fd5b506101256107a6565b6040516101329190610e4a565b60405180910390f35b6000600160008373ffffffffffffffffffffffffffffffffffffffff1673ffffffffffffffffffffffffffffffffffffffff16815260200190815260200160002060009054906101000a900460ff169050919050565b60016020528060005260406000206000915054906101000a900460ff1681565b606060011515600160003373ffffffffffffffffffffffffffffffffffffffff1673ffffffffffffffffffffffffffffffffffffffff16815260200190815260200160002060009054906101000a900460ff16151514610246576040517f08c379a000000000000000000000000000000000000000000000000000000000815260040161023d90610e2a565b60405180910390fd5b60011515610289836040518060400160405280600481526020017f726f636b000000000000000000000000000000000000000000000000000000008152506107ac565b151514806102d95750600115156102d5836040518060400160405280600581526020017f70617065720000000000000000000000000000000000000000000000000000008152506107ac565b1515145b80610326575060011515610322836040518060400160405280600881526020017f73636973736f72730000000000000000000000000000000000000000000000008152506107ac565b1515145b610365576040517f08c379a000000000000000000000000000000000000000000000000000000000815260040161035c90610e0a565b60405180910390fd5b60008054906101000a900473ffffffffffffffffffffffffffffffffffffffff1673ffffffffffffffffffffffffffffffffffffffff166323b872dd33306706f05b59d3b200006040518463ffffffff1660e01b81526004016103ca93929190610d6d565b602060405180830381600087803b1580156103e457600080fd5b505af11580156103f8573d6000803e3d6000fd5b505050506040513d601f19601f8201168201806040525081019061041c9190610c48565b506000600254111561055f57604051806080016040528060025481526020013373ffffffffffffffffffffffffffffffffffffffff168152602001838152602001600115158152506003600060025481526020019081526020016000206000820151816000015560208201518160010160006101000a81548173ffffffffffffffffffffffffffffffffffffffff021916908373ffffffffffffffffffffffffffffffffffffffff16021790555060408201518160020190805190602001906104e6929190610aea565b5060608201518160030160006101000a81548160ff0219169083151502179055509050506002600081548092919061051d90610fd6565b91905055506040518060400160405280601281526020017f596f752061726520706c617965722074776f00000000000000000000000000008152509050610692565b604051806080016040528060025481526020013373ffffffffffffffffffffffffffffffffffffffff168152602001838152602001600115158152506003600060025481526020019081526020016000206000820151816000015560208201518160010160006101000a81548173ffffffffffffffffffffffffffffffffffffffff021916908373ffffffffffffffffffffffffffffffffffffffff160217905550604082015181600201908051906020019061061d929190610aea565b5060608201518160030160006101000a81548160ff0219169083151502179055509050506002600081548092919061065490610fd6565b91905055506040518060400160405280601281526020017f596f752061726520706c61796572206f6e65000000000000000000000000000081525090505b919050565b60008054906101000a900473ffffffffffffffffffffffffffffffffffffffff1673ffffffffffffffffffffffffffffffffffffffff1663095ea7b3336706f05b59d3b200006040518363ffffffff1660e01b81526004016106fa929190610da4565b602060405180830381600087803b15801561071457600080fd5b505af1158015610728573d6000803e3d6000fd5b505050506040513d601f19601f8201168201806040525081019061074c9190610c48565b5060018060003373ffffffffffffffffffffffffffffffffffffffff1673ffffffffffffffffffffffffffffffffffffffff16815260200190815260200160002060006101000a81548160ff021916908315150217905550565b60025481565b600080826040516020016107c09190610de8565b60405160208183030381529060405280519060200120846040516020016107e79190610de8565b604051602081830303815290604052805190602001201490508091505092915050565b81548152906001019060200180831161080a57829003601f1682019150505050506040518060400160405280600481526020017f726f636b000000000000000000000000000000000000000000000000000000008152506107ac565b81548152906001019060200180831161086657829003601f1682019150505050506040518060400160405280600581526020017f70617065720000000000000000000000000000000000000000000000000000008152506107ac565b8154815290600101906020018083116108c257829003601f1682019150505050506040518060400160405280600881526020017f73636973736f72730000000000000000000000000000000000000000000000008152506107ac565b81548152906001019060200180831161091e57829003601f1682019150505050506040518060400160405280600581526020017f70617065720000000000000000000000000000000000000000000000000000008152506107ac565b81548152906001019060200180831161097a57829003601f1682019150505050506040518060400160405280600881526020017f73636973736f72730000000000000000000000000000000000000000000000008152506107ac565b8154815290600101906020018083116109d657829003601f1682019150505050506040518060400160405280600481526020017f726f636b000000000000000000000000000000000000000000000000000000008152506107ac565b815481529060010190602001808311610a3257829003601f1682019150505050506040518060400160405280600481526020017f726f636b000000000000000000000000000000000000000000000000000000008152506107ac565b815481529060010190602001808311610a8e57829003601f1682019150505050506040518060400160405280600581526020017f70617065720000000000000000000000000000000000000000000000000000008152506107ac565b828054610af690610f73565b90600052602060002090601f016020900481019282610b185760008555610b5f565b82601f10610b3157805160ff1916838001178555610b5f565b82800160010185558215610b5f579182015b82811115610b5e578251825591602001919060010190610b43565b5b509050610b6c9190610b70565b5090565b5b80821115610b89576000816000905550600101610b71565b5090565b6000610ba0610b9b84610e8a565b610e65565b905082815260208101848484011115610bb857600080fd5b610bc3848285610f31565b509392505050565b600081359050610bda81611181565b92915050565b600081519050610bef81611198565b92915050565b600082601f830112610c0657600080fd5b8135610c16848260208601610b8d565b91505092915050565b600060208284031215610c3157600080fd5b6000610c3f84828501610bcb565b91505092915050565b600060208284031215610c5a57600080fd5b6000610c6884828501610be0565b91505092915050565b600060208284031215610c8357600080fd5b600082013567ffffffffffffffff811115610c9d57600080fd5b610ca984828501610bf5565b91505092915050565b610cbb81610ed7565b82525050565b610cca81610ee9565b82525050565b610cd981610f1f565b82525050565b6000610cea82610ebb565b610cf48185610ec6565b9350610d04818560208601610f40565b610d0d816110ac565b840191505092915050565b6000610d25605483610ec6565b9150610d30826110bd565b606082019050919050565b6000610d48602883610ec6565b9150610d5382611132565b604082019050919050565b610d6781610f15565b82525050565b6000606082019050610d826000830186610cb2565b610d8f6020830185610cb2565b610d9c6040830184610cd0565b949350505050565b6000604082019050610db96000830185610cb2565b610dc66020830184610cd0565b9392505050565b6000602082019050610de26000830184610cc1565b92915050565b60006020820190508181036000830152610e028184610cdf565b905092915050565b60006020820190508181036000830152610e2381610d18565b9050919050565b60006020820190508181036000830152610e4381610d3b565b9050919050565b6000602082019050610e5f6000830184610d5e565b92915050565b6000610e6f610e80565b9050610e7b8282610fa5565b919050565b6000604051905090565b600067ffffffffffffffff821115610ea557610ea461107d565b5b610eae826110ac565b9050602081019050919050565b600081519050919050565b600082825260208201905092915050565b6000610ee282610ef5565b9050919050565b60008115159050919050565b600073ffffffffffffffffffffffffffffffffffffffff82169050919050565b6000819050919050565b6000610f2a82610f15565b9050919050565b82818337600083830152505050565b60005b83811015610f5e578082015181840152602081019050610f43565b83811115610f6d576000848401525b50505050565b60006002820490506001821680610f8b57607f821691505b60208210811415610f9f57610f9e61104e565b5b50919050565b610fae826110ac565b810181811067ffffffffffffffff82111715610fcd57610fcc61107d565b5b80604052505050565b6000610fe182610f15565b91507fffffffffffffffffffffffffffffffffffffffffffffffffffffffffffffffff8214156110145761101361101f565b5b600182019050919050565b7f4e487b7100000000000000000000000000000000000000000000000000000000600052601160045260246000fd5b7f4e487b7100000000000000000000000000000000000000000000000000000000600052602260045260246000fd5b7f4e487b7100000000000000000000000000000000000000000000000000000000600052604160045260246000fd5b6000601f19601f8301169050919050565b7f596f75206861766520656974686572206e6f7420696e70757420616e2061707060008201527f726f707269617465206974656d206f72206974656d206e616d65206e6f74207760208201527f72697474656e20696e206c6f776572636173652e000000000000000000000000604082015250565b7f596f752068617665206e6f7420617070726f76656420636f6e7472616374206660008201527f6f7220244c494e4b000000000000000000000000000000000000000000000000602082015250565b61118a81610ed7565b811461119557600080fd5b50565b6111a181610ee9565b81146111ac57600080fd5b5056fea26469706673582212200dea76491deb671e7a1952ca0f54445fcc5f5f553f5a8c8a2b352999e2e2d32664736f6c63430008040033",
  "linkReferences": {},
  "deployedLinkReferences": {}
}