{
  "_format": "hh-sol-artifact-1",
  "contractName": "RockPaperScissors",
  "sourceName": "contracts/RockPaperScissors.sol",
  "abi": [
    {
      "inputs": [],
      "name": "kovanLink",
      "outputs": [
        {
          "internalType": "contract IERC20",
          "name": "",
          "type": "address"
        }
      ],
      "stateMutability": "view",
      "type": "function"
    },
    {
      "inputs": [],
      "name": "mostRecentWinner",
      "outputs": [
        {
          "internalType": "address",
          "name": "",
          "type": "address"
        }
      ],
      "stateMutability": "view",
      "type": "function"
    },
    {
      "inputs": [
        {
          "internalType": "string",
          "name": "_chosenItem",
          "type": "string"
        }
      ],
      "name": "playPaperRockScissors",
      "outputs": [],
      "stateMutability": "payable",
      "type": "function"
    }
  ],
  "bytecode": "0x608060405273a36085f69e2889c224210f603d836748e7dc00886000806101000a81548173ffffffffffffffffffffffffffffffffffffffff021916908373ffffffffffffffffffffffffffffffffffffffff16021790555034801561006457600080fd5b50611670806100746000396000f3fe6080604052600436106100345760003560e01c80633dd29a311461003957806371c92f78146100645780639b2545021461008f575b600080fd5b34801561004557600080fd5b5061004e6100ab565b60405161005b91906112c3565b60405180910390f35b34801561007057600080fd5b506100796100cf565b604051610086919061123a565b60405180910390f35b6100a960048036038101906100a49190611161565b6100f9565b005b60008054906101000a900473ffffffffffffffffffffffffffffffffffffffff1681565b6000600160009054906101000a900473ffffffffffffffffffffffffffffffffffffffff16905090565b6001151561013c826040518060400160405280600481526020017f726f636b000000000000000000000000000000000000000000000000000000008152506105b4565b1515148061018c575060011515610188826040518060400160405280600581526020017f70617065720000000000000000000000000000000000000000000000000000008152506105b4565b1515145b806101d95750600115156101d5826040518060400160405280600881526020017f73636973736f72730000000000000000000000000000000000000000000000008152506105b4565b1515145b610218576040517f08c379a000000000000000000000000000000000000000000000000000000000815260040161020f90611300565b60405180910390fd5b60008054906101000a900473ffffffffffffffffffffffffffffffffffffffff1673ffffffffffffffffffffffffffffffffffffffff166323b872dd33306302faf0806040518463ffffffff1660e01b81526004016102799392919061128c565b602060405180830381600087803b15801561029357600080fd5b505af11580156102a7573d6000803e3d6000fd5b505050506040513d601f19601f820116820180604052508101906102cb9190611138565b506000600254111561044a5760006003600060025481526020019081526020016000206040518060400160405290816000820160009054906101000a900473ffffffffffffffffffffffffffffffffffffffff1673ffffffffffffffffffffffffffffffffffffffff1673ffffffffffffffffffffffffffffffffffffffff16815260200160018201805461035f90611464565b80601f016020809104026020016040519081016040528092919081815260200182805461038b90611464565b80156103d85780601f106103ad576101008083540402835291602001916103d8565b820191906000526020600020905b8154815290600101906020018083116103bb57829003601f168201915b505050505081525050905033816000019073ffffffffffffffffffffffffffffffffffffffff16908173ffffffffffffffffffffffffffffffffffffffff168152505081816020018190525060026000815480929190610437906114c7565b919050555061044461061e565b506105b1565b60006003600060025481526020019081526020016000206040518060400160405290816000820160009054906101000a900473ffffffffffffffffffffffffffffffffffffffff1673ffffffffffffffffffffffffffffffffffffffff1673ffffffffffffffffffffffffffffffffffffffff1681526020016001820180546104d290611464565b80601f01602080910402602001604051908101604052809291908181526020018280546104fe90611464565b801561054b5780601f106105205761010080835404028352916020019161054b565b820191906000526020600020905b81548152906001019060200180831161052e57829003601f168201915b505050505081525050905033816000019073ffffffffffffffffffffffffffffffffffffffff16908173ffffffffffffffffffffffffffffffffffffffff1681525050818160200181905250600260008154809291906105aa906114c7565b9190505550505b50565b6000816040516020016105c791906112de565b60405160208183030381529060405280519060200120836040516020016105ee91906112de565b6040516020818303038152906040528051906020012014156106135760019050610618565b600090505b92915050565b600115156106ff60036000808152602001908152602001600020600101805461064690611464565b80601f016020809104026020016040519081016040528092919081815260200182805461067290611464565b80156106bf5780601f10610694576101008083540402835291602001916106bf565b820191906000526020600020905b8154815290600101906020018083116106a257829003601f168201915b50505050506040518060400160405280600481526020017f726f636b000000000000000000000000000000000000000000000000000000008152506105b4565b1515141561096457600115156107e96003600060018152602001908152602001600020600101805461073090611464565b80601f016020809104026020016040519081016040528092919081815260200182805461075c90611464565b80156107a95780601f1061077e576101008083540402835291602001916107a9565b820191906000526020600020905b81548152906001019060200180831161078c57829003601f168201915b50505050506040518060400160405280600581526020017f70617065720000000000000000000000000000000000000000000000000000008152506105b4565b1515141561083657610831600360006001815260200190815260200160002060000160009054906101000a900473ffffffffffffffffffffffffffffffffffffffff16610ef0565b61095f565b6109146003600060018152602001908152602001600020600101805461085b90611464565b80601f016020809104026020016040519081016040528092919081815260200182805461088790611464565b80156108d45780601f106108a9576101008083540402835291602001916108d4565b820191906000526020600020905b8154815290600101906020018083116108b757829003601f168201915b50505050506040518060400160405280600881526020017f73636973736f72730000000000000000000000000000000000000000000000008152506105b4565b1561095d576109586003600080815260200190815260200160002060000160009054906101000a900473ffffffffffffffffffffffffffffffffffffffff16610ef0565b61095e565b5b5b610eee565b610a4160036000808152602001908152602001600020600101805461098890611464565b80601f01602080910402602001604051908101604052809291908181526020018280546109b490611464565b8015610a015780601f106109d657610100808354040283529160200191610a01565b820191906000526020600020905b8154815290600101906020018083116109e457829003601f168201915b50505050506040518060400160405280600581526020017f70617065720000000000000000000000000000000000000000000000000000008152506105b4565b15610c9c57610b2460036000600181526020019081526020016000206001018054610a6b90611464565b80601f0160208091040260200160405190810160405280929190818152602001828054610a9790611464565b8015610ae45780601f10610ab957610100808354040283529160200191610ae4565b820191906000526020600020905b815481529060010190602001808311610ac757829003601f168201915b50505050506040518060400160405280600881526020017f73636973736f72730000000000000000000000000000000000000000000000008152506105b4565b15610b6e57610b69600360006001815260200190815260200160002060000160009054906101000a900473ffffffffffffffffffffffffffffffffffffffff16610ef0565b610c97565b610c4c60036000600181526020019081526020016000206001018054610b9390611464565b80601f0160208091040260200160405190810160405280929190818152602001828054610bbf90611464565b8015610c0c5780601f10610be157610100808354040283529160200191610c0c565b820191906000526020600020905b815481529060010190602001808311610bef57829003601f168201915b50505050506040518060400160405280600481526020017f726f636b000000000000000000000000000000000000000000000000000000008152506105b4565b15610c9557610c906003600080815260200190815260200160002060000160009054906101000a900473ffffffffffffffffffffffffffffffffffffffff16610ef0565b610c96565b5b5b610eed565b610d7a60036000600181526020019081526020016000206001018054610cc190611464565b80601f0160208091040260200160405190810160405280929190818152602001828054610ced90611464565b8015610d3a5780601f10610d0f57610100808354040283529160200191610d3a565b820191906000526020600020905b815481529060010190602001808311610d1d57829003601f168201915b50505050506040518060400160405280600481526020017f726f636b000000000000000000000000000000000000000000000000000000008152506105b4565b15610dc457610dbf600360006001815260200190815260200160002060000160009054906101000a900473ffffffffffffffffffffffffffffffffffffffff16610ef0565b610eec565b610ea1600360008081526020019081526020016000206001018054610de890611464565b80601f0160208091040260200160405190810160405280929190818152602001828054610e1490611464565b8015610e615780601f10610e3657610100808354040283529160200191610e61565b820191906000526020600020905b815481529060010190602001808311610e4457829003601f168201915b50505050506040518060400160405280600581526020017f70617065720000000000000000000000000000000000000000000000000000008152506105b4565b15610eea57610ee56003600080815260200190815260200160002060000160009054906101000a900473ffffffffffffffffffffffffffffffffffffffff16610ef0565b610eeb565b5b5b5b5b565b600060028190555080600160006101000a81548173ffffffffffffffffffffffffffffffffffffffff021916908373ffffffffffffffffffffffffffffffffffffffff160217905550610f4281610ff9565b60008054906101000a900473ffffffffffffffffffffffffffffffffffffffff1673ffffffffffffffffffffffffffffffffffffffff166323b872dd30836305f5e1006040518463ffffffff1660e01b8152600401610fa393929190611255565b602060405180830381600087803b158015610fbd57600080fd5b505af1158015610fd1573d6000803e3d6000fd5b505050506040513d601f19601f82011682018060405250810190610ff59190611138565b5050565b61108f8160405160240161100d919061123a565b6040516020818303038152906040527f2c2ecbc2000000000000000000000000000000000000000000000000000000007bffffffffffffffffffffffffffffffffffffffffffffffffffffffff19166020820180517bffffffffffffffffffffffffffffffffffffffffffffffffffffffff8381831617835250505050611092565b50565b60008151905060006a636f6e736f6c652e6c6f679050602083016000808483855afa5050505050565b60006110ce6110c984611345565b611320565b9050828152602081018484840111156110e657600080fd5b6110f1848285611422565b509392505050565b60008151905061110881611623565b92915050565b600082601f83011261111f57600080fd5b813561112f8482602086016110bb565b91505092915050565b60006020828403121561114a57600080fd5b6000611158848285016110f9565b91505092915050565b60006020828403121561117357600080fd5b600082013567ffffffffffffffff81111561118d57600080fd5b6111998482850161110e565b91505092915050565b6111ab81611392565b82525050565b6111ba816113da565b82525050565b6111c9816113fe565b82525050565b6111d881611410565b82525050565b60006111e982611376565b6111f38185611381565b9350611203818560208601611431565b61120c8161159d565b840191505092915050565b6000611224605483611381565b915061122f826115ae565b606082019050919050565b600060208201905061124f60008301846111a2565b92915050565b600060608201905061126a60008301866111a2565b61127760208301856111a2565b61128460408301846111c0565b949350505050565b60006060820190506112a160008301866111a2565b6112ae60208301856111a2565b6112bb60408301846111cf565b949350505050565b60006020820190506112d860008301846111b1565b92915050565b600060208201905081810360008301526112f881846111de565b905092915050565b6000602082019050818103600083015261131981611217565b9050919050565b600061132a61133b565b90506113368282611496565b919050565b6000604051905090565b600067ffffffffffffffff8211156113605761135f61156e565b5b6113698261159d565b9050602081019050919050565b600081519050919050565b600082825260208201905092915050565b600061139d826113b0565b9050919050565b60008115159050919050565b600073ffffffffffffffffffffffffffffffffffffffff82169050919050565b6000819050919050565b60006113e5826113ec565b9050919050565b60006113f7826113b0565b9050919050565b6000611409826113d0565b9050919050565b600061141b826113d0565b9050919050565b82818337600083830152505050565b60005b8381101561144f578082015181840152602081019050611434565b8381111561145e576000848401525b50505050565b6000600282049050600182168061147c57607f821691505b602082108114156114905761148f61153f565b5b50919050565b61149f8261159d565b810181811067ffffffffffffffff821117156114be576114bd61156e565b5b80604052505050565b60006114d2826113d0565b91507fffffffffffffffffffffffffffffffffffffffffffffffffffffffffffffffff82141561150557611504611510565b5b600182019050919050565b7f4e487b7100000000000000000000000000000000000000000000000000000000600052601160045260246000fd5b7f4e487b7100000000000000000000000000000000000000000000000000000000600052602260045260246000fd5b7f4e487b7100000000000000000000000000000000000000000000000000000000600052604160045260246000fd5b6000601f19601f8301169050919050565b7f596f75206861766520656974686572206e6f7420696e70757420616e2061707060008201527f726f707269617465206974656d206f72206974656d206e616d65206e6f74207760208201527f72697474656e20696e206c6f776572636173652e000000000000000000000000604082015250565b61162c816113a4565b811461163757600080fd5b5056fea264697066735822122066323a8b57afa62c29f56c85c3a208784b87d778215fd83efbd6d3f208d04d4164736f6c63430008040033",
  "linkReferences": {},
  "deployedLinkReferences": {}
}