{
  "_format": "hh-sol-artifact-1",
  "contractName": "RockPaperScissors",
  "sourceName": "contracts/RockPaperScissors.sol",
  "abi": [
    {
      "inputs": [
        {
          "internalType": "address",
          "name": "_approver",
          "type": "address"
        }
      ],
      "name": "_approvedLink",
      "outputs": [
        {
          "internalType": "bool",
          "name": "",
          "type": "bool"
        }
      ],
      "stateMutability": "view",
      "type": "function"
    },
    {
      "inputs": [],
      "name": "approveLink",
      "outputs": [],
      "stateMutability": "nonpayable",
      "type": "function"
    },
    {
      "inputs": [
        {
          "internalType": "address",
          "name": "",
          "type": "address"
        }
      ],
      "name": "approvedLink",
      "outputs": [
        {
          "internalType": "bool",
          "name": "",
          "type": "bool"
        }
      ],
      "stateMutability": "view",
      "type": "function"
    },
    {
      "inputs": [
        {
          "internalType": "string",
          "name": "_chosenItem",
          "type": "string"
        }
      ],
      "name": "playPaperRockScissors",
      "outputs": [
        {
          "internalType": "string",
          "name": "",
          "type": "string"
        }
      ],
      "stateMutability": "payable",
      "type": "function"
    }
  ],
  "bytecode": "0x608060405273a36085f69e2889c224210f603d836748e7dc00886000806101000a81548173ffffffffffffffffffffffffffffffffffffffff021916908373ffffffffffffffffffffffffffffffffffffffff16021790555034801561006457600080fd5b5061117f806100746000396000f3fe60806040526004361061003f5760003560e01c80632f9b19db14610044578063604d0944146100815780639b254502146100be578063d02bfea1146100ee575b600080fd5b34801561005057600080fd5b5061006b60048036038101906100669190610be3565b610105565b6040516100789190610d82565b60405180910390f35b34801561008d57600080fd5b506100a860048036038101906100a39190610be3565b61015b565b6040516100b59190610d82565b60405180910390f35b6100d860048036038101906100d39190610c35565b61017b565b6040516100e59190610d9d565b60405180910390f35b3480156100fa57600080fd5b50610103610661565b005b6000600160008373ffffffffffffffffffffffffffffffffffffffff1673ffffffffffffffffffffffffffffffffffffffff16815260200190815260200160002060009054906101000a900460ff169050919050565b60016020528060005260406000206000915054906101000a900460ff1681565b606060011515600160003373ffffffffffffffffffffffffffffffffffffffff1673ffffffffffffffffffffffffffffffffffffffff16815260200190815260200160002060009054906101000a900460ff16151514610210576040517f08c379a000000000000000000000000000000000000000000000000000000000815260040161020790610ddf565b60405180910390fd5b60011515610253836040518060400160405280600481526020017f726f636b00000000000000000000000000000000000000000000000000000000815250610770565b151514806102a357506001151561029f836040518060400160405280600581526020017f7061706572000000000000000000000000000000000000000000000000000000815250610770565b1515145b806102f05750600115156102ec836040518060400160405280600881526020017f73636973736f7273000000000000000000000000000000000000000000000000815250610770565b1515145b61032f576040517f08c379a000000000000000000000000000000000000000000000000000000000815260040161032690610dbf565b60405180910390fd5b60008054906101000a900473ffffffffffffffffffffffffffffffffffffffff1673ffffffffffffffffffffffffffffffffffffffff166323b872dd33306706f05b59d3b200006040518463ffffffff1660e01b815260040161039493929190610d22565b602060405180830381600087803b1580156103ae57600080fd5b505af11580156103c2573d6000803e3d6000fd5b505050506040513d601f19601f820116820180604052508101906103e69190610c0c565b506000600254111561052957604051806080016040528060025481526020013373ffffffffffffffffffffffffffffffffffffffff168152602001838152602001600115158152506003600060025481526020019081526020016000206000820151816000015560208201518160010160006101000a81548173ffffffffffffffffffffffffffffffffffffffff021916908373ffffffffffffffffffffffffffffffffffffffff16021790555060408201518160020190805190602001906104b0929190610aae565b5060608201518160030160006101000a81548160ff021916908315150217905550905050600260008154809291906104e790610f70565b91905055506040518060400160405280601281526020017f596f752061726520706c617965722074776f0000000000000000000000000000815250905061065c565b604051806080016040528060025481526020013373ffffffffffffffffffffffffffffffffffffffff168152602001838152602001600115158152506003600060025481526020019081526020016000206000820151816000015560208201518160010160006101000a81548173ffffffffffffffffffffffffffffffffffffffff021916908373ffffffffffffffffffffffffffffffffffffffff16021790555060408201518160020190805190602001906105e7929190610aae565b5060608201518160030160006101000a81548160ff0219169083151502179055509050506002600081548092919061061e90610f70565b91905055506040518060400160405280601281526020017f596f752061726520706c61796572206f6e65000000000000000000000000000081525090505b919050565b60008054906101000a900473ffffffffffffffffffffffffffffffffffffffff1673ffffffffffffffffffffffffffffffffffffffff1663095ea7b3336706f05b59d3b200006040518363ffffffff1660e01b81526004016106c4929190610d59565b602060405180830381600087803b1580156106de57600080fd5b505af11580156106f2573d6000803e3d6000fd5b505050506040513d601f19601f820116820180604052508101906107169190610c0c565b5060018060003373ffffffffffffffffffffffffffffffffffffffff1673ffffffffffffffffffffffffffffffffffffffff16815260200190815260200160002060006101000a81548160ff021916908315150217905550565b600080826040516020016107849190610d9d565b60405160208183030381529060405280519060200120846040516020016107ab9190610d9d565b604051602081830303815290604052805190602001201490508091505092915050565b8154815290600101906020018083116107ce57829003601f1682019150505050506040518060400160405280600481526020017f726f636b00000000000000000000000000000000000000000000000000000000815250610770565b81548152906001019060200180831161082a57829003601f1682019150505050506040518060400160405280600581526020017f7061706572000000000000000000000000000000000000000000000000000000815250610770565b81548152906001019060200180831161088657829003601f1682019150505050506040518060400160405280600881526020017f73636973736f7273000000000000000000000000000000000000000000000000815250610770565b8154815290600101906020018083116108e257829003601f1682019150505050506040518060400160405280600581526020017f7061706572000000000000000000000000000000000000000000000000000000815250610770565b81548152906001019060200180831161093e57829003601f1682019150505050506040518060400160405280600881526020017f73636973736f7273000000000000000000000000000000000000000000000000815250610770565b81548152906001019060200180831161099a57829003601f1682019150505050506040518060400160405280600481526020017f726f636b00000000000000000000000000000000000000000000000000000000815250610770565b8154815290600101906020018083116109f657829003601f1682019150505050506040518060400160405280600481526020017f726f636b00000000000000000000000000000000000000000000000000000000815250610770565b815481529060010190602001808311610a5257829003601f1682019150505050506040518060400160405280600581526020017f7061706572000000000000000000000000000000000000000000000000000000815250610770565b828054610aba90610f0d565b90600052602060002090601f016020900481019282610adc5760008555610b23565b82601f10610af557805160ff1916838001178555610b23565b82800160010185558215610b23579182015b82811115610b22578251825591602001919060010190610b07565b5b509050610b309190610b34565b5090565b5b80821115610b4d576000816000905550600101610b35565b5090565b6000610b64610b5f84610e24565b610dff565b905082815260208101848484011115610b7c57600080fd5b610b87848285610ecb565b509392505050565b600081359050610b9e8161111b565b92915050565b600081519050610bb381611132565b92915050565b600082601f830112610bca57600080fd5b8135610bda848260208601610b51565b91505092915050565b600060208284031215610bf557600080fd5b6000610c0384828501610b8f565b91505092915050565b600060208284031215610c1e57600080fd5b6000610c2c84828501610ba4565b91505092915050565b600060208284031215610c4757600080fd5b600082013567ffffffffffffffff811115610c6157600080fd5b610c6d84828501610bb9565b91505092915050565b610c7f81610e71565b82525050565b610c8e81610e83565b82525050565b610c9d81610eb9565b82525050565b6000610cae82610e55565b610cb88185610e60565b9350610cc8818560208601610eda565b610cd181611046565b840191505092915050565b6000610ce9605483610e60565b9150610cf482611057565b606082019050919050565b6000610d0c602883610e60565b9150610d17826110cc565b604082019050919050565b6000606082019050610d376000830186610c76565b610d446020830185610c76565b610d516040830184610c94565b949350505050565b6000604082019050610d6e6000830185610c76565b610d7b6020830184610c94565b9392505050565b6000602082019050610d976000830184610c85565b92915050565b60006020820190508181036000830152610db78184610ca3565b905092915050565b60006020820190508181036000830152610dd881610cdc565b9050919050565b60006020820190508181036000830152610df881610cff565b9050919050565b6000610e09610e1a565b9050610e158282610f3f565b919050565b6000604051905090565b600067ffffffffffffffff821115610e3f57610e3e611017565b5b610e4882611046565b9050602081019050919050565b600081519050919050565b600082825260208201905092915050565b6000610e7c82610e8f565b9050919050565b60008115159050919050565b600073ffffffffffffffffffffffffffffffffffffffff82169050919050565b6000819050919050565b6000610ec482610eaf565b9050919050565b82818337600083830152505050565b60005b83811015610ef8578082015181840152602081019050610edd565b83811115610f07576000848401525b50505050565b60006002820490506001821680610f2557607f821691505b60208210811415610f3957610f38610fe8565b5b50919050565b610f4882611046565b810181811067ffffffffffffffff82111715610f6757610f66611017565b5b80604052505050565b6000610f7b82610eaf565b91507fffffffffffffffffffffffffffffffffffffffffffffffffffffffffffffffff821415610fae57610fad610fb9565b5b600182019050919050565b7f4e487b7100000000000000000000000000000000000000000000000000000000600052601160045260246000fd5b7f4e487b7100000000000000000000000000000000000000000000000000000000600052602260045260246000fd5b7f4e487b7100000000000000000000000000000000000000000000000000000000600052604160045260246000fd5b6000601f19601f8301169050919050565b7f596f75206861766520656974686572206e6f7420696e70757420616e2061707060008201527f726f707269617465206974656d206f72206974656d206e616d65206e6f74207760208201527f72697474656e20696e206c6f776572636173652e000000000000000000000000604082015250565b7f596f752068617665206e6f7420617070726f76656420636f6e7472616374206660008201527f6f7220244c494e4b000000000000000000000000000000000000000000000000602082015250565b61112481610e71565b811461112f57600080fd5b50565b61113b81610e83565b811461114657600080fd5b5056fea2646970667358221220ac68dbc6c257d6ff1763eab5f4424ee203c63d7aba8f465e72cf1d1a316ef9b764736f6c63430008040033",
  "linkReferences": {},
  "deployedLinkReferences": {}
}