{
  "_format": "hh-sol-artifact-1",
  "contractName": "RockPaperScissors",
  "sourceName": "contracts/RockPaperScissors.sol",
  "abi": [
    {
      "inputs": [],
      "name": "kovanLink",
      "outputs": [
        {
          "internalType": "contract IERC20",
          "name": "",
          "type": "address"
        }
      ],
      "stateMutability": "view",
      "type": "function"
    },
    {
      "inputs": [],
      "name": "mostRecentWinner",
      "outputs": [
        {
          "internalType": "address",
          "name": "",
          "type": "address"
        }
      ],
      "stateMutability": "view",
      "type": "function"
    },
    {
      "inputs": [
        {
          "internalType": "string",
          "name": "_chosenItem",
          "type": "string"
        }
      ],
      "name": "playPaperRockScissors",
      "outputs": [
        {
          "internalType": "string",
          "name": "",
          "type": "string"
        }
      ],
      "stateMutability": "payable",
      "type": "function"
    },
    {
      "inputs": [],
      "name": "playerNumber",
      "outputs": [
        {
          "internalType": "uint256",
          "name": "",
          "type": "uint256"
        }
      ],
      "stateMutability": "view",
      "type": "function"
    }
  ],
  "bytecode": "0x608060405273a36085f69e2889c224210f603d836748e7dc00886000806101000a81548173ffffffffffffffffffffffffffffffffffffffff021916908373ffffffffffffffffffffffffffffffffffffffff16021790555034801561006457600080fd5b50610ef1806100746000396000f3fe60806040526004361061003f5760003560e01c80633dd29a311461004457806371c92f781461006f5780639b2545021461009a578063d4bcc33c146100ca575b600080fd5b34801561005057600080fd5b506100596100f5565b6040516100669190610b3b565b60405180910390f35b34801561007b57600080fd5b50610084610119565b6040516100919190610af7565b60405180910390f35b6100b460048036038101906100af9190610a1e565b610143565b6040516100c19190610b56565b60405180910390f35b3480156100d657600080fd5b506100df610591565b6040516100ec9190610b98565b60405180910390f35b60008054906101000a900473ffffffffffffffffffffffffffffffffffffffff1681565b6000600160009054906101000a900473ffffffffffffffffffffffffffffffffffffffff16905090565b606060011515610188836040518060400160405280600481526020017f726f636b00000000000000000000000000000000000000000000000000000000815250610597565b151514806101d85750600115156101d4836040518060400160405280600581526020017f7061706572000000000000000000000000000000000000000000000000000000815250610597565b1515145b80610225575060011515610221836040518060400160405280600881526020017f73636973736f7273000000000000000000000000000000000000000000000000815250610597565b1515145b610264576040517f08c379a000000000000000000000000000000000000000000000000000000000815260040161025b90610b78565b60405180910390fd5b60008054906101000a900473ffffffffffffffffffffffffffffffffffffffff1673ffffffffffffffffffffffffffffffffffffffff1663a9059cbb30640ba43b74006040518363ffffffff1660e01b81526004016102c4929190610b12565b602060405180830381600087803b1580156102de57600080fd5b505af11580156102f2573d6000803e3d6000fd5b505050506040513d601f19601f8201168201806040525081019061031691906109f5565b506000600254111561045957604051806080016040528060025481526020013373ffffffffffffffffffffffffffffffffffffffff168152602001838152602001600115158152506003600060025481526020019081526020016000206000820151816000015560208201518160010160006101000a81548173ffffffffffffffffffffffffffffffffffffffff021916908373ffffffffffffffffffffffffffffffffffffffff16021790555060408201518160020190805190602001906103e09291906108d5565b5060608201518160030160006101000a81548160ff0219169083151502179055509050506002600081548092919061041790610d48565b91905055506040518060400160405280601281526020017f596f752061726520706c617965722074776f0000000000000000000000000000815250905061058c565b604051806080016040528060025481526020013373ffffffffffffffffffffffffffffffffffffffff168152602001838152602001600115158152506003600060025481526020019081526020016000206000820151816000015560208201518160010160006101000a81548173ffffffffffffffffffffffffffffffffffffffff021916908373ffffffffffffffffffffffffffffffffffffffff16021790555060408201518160020190805190602001906105179291906108d5565b5060608201518160030160006101000a81548160ff0219169083151502179055509050506002600081548092919061054e90610d48565b91905055506040518060400160405280601281526020017f596f752061726520706c61796572206f6e65000000000000000000000000000081525090505b919050565b60025481565b600080826040516020016105ab9190610b56565b60405160208183030381529060405280519060200120846040516020016105d29190610b56565b604051602081830303815290604052805190602001201490508091505092915050565b8154815290600101906020018083116105f557829003601f1682019150505050506040518060400160405280600481526020017f726f636b00000000000000000000000000000000000000000000000000000000815250610597565b81548152906001019060200180831161065157829003601f1682019150505050506040518060400160405280600581526020017f7061706572000000000000000000000000000000000000000000000000000000815250610597565b8154815290600101906020018083116106ad57829003601f1682019150505050506040518060400160405280600881526020017f73636973736f7273000000000000000000000000000000000000000000000000815250610597565b81548152906001019060200180831161070957829003601f1682019150505050506040518060400160405280600581526020017f7061706572000000000000000000000000000000000000000000000000000000815250610597565b81548152906001019060200180831161076557829003601f1682019150505050506040518060400160405280600881526020017f73636973736f7273000000000000000000000000000000000000000000000000815250610597565b8154815290600101906020018083116107c157829003601f1682019150505050506040518060400160405280600481526020017f726f636b00000000000000000000000000000000000000000000000000000000815250610597565b81548152906001019060200180831161081d57829003601f1682019150505050506040518060400160405280600481526020017f726f636b00000000000000000000000000000000000000000000000000000000815250610597565b81548152906001019060200180831161087957829003601f1682019150505050506040518060400160405280600581526020017f7061706572000000000000000000000000000000000000000000000000000000815250610597565b8280546108e190610ce5565b90600052602060002090601f016020900481019282610903576000855561094a565b82601f1061091c57805160ff191683800117855561094a565b8280016001018555821561094a579182015b8281111561094957825182559160200191906001019061092e565b5b509050610957919061095b565b5090565b5b8082111561097457600081600090555060010161095c565b5090565b600061098b61098684610bd8565b610bb3565b9050828152602081018484840111156109a357600080fd5b6109ae848285610ca3565b509392505050565b6000815190506109c581610ea4565b92915050565b600082601f8301126109dc57600080fd5b81356109ec848260208601610978565b91505092915050565b600060208284031215610a0757600080fd5b6000610a15848285016109b6565b91505092915050565b600060208284031215610a3057600080fd5b600082013567ffffffffffffffff811115610a4a57600080fd5b610a56848285016109cb565b91505092915050565b610a6881610c25565b82525050565b610a7781610c6d565b82525050565b610a8681610c91565b82525050565b6000610a9782610c09565b610aa18185610c14565b9350610ab1818560208601610cb2565b610aba81610e1e565b840191505092915050565b6000610ad2605483610c14565b9150610add82610e2f565b606082019050919050565b610af181610c63565b82525050565b6000602082019050610b0c6000830184610a5f565b92915050565b6000604082019050610b276000830185610a5f565b610b346020830184610a7d565b9392505050565b6000602082019050610b506000830184610a6e565b92915050565b60006020820190508181036000830152610b708184610a8c565b905092915050565b60006020820190508181036000830152610b9181610ac5565b9050919050565b6000602082019050610bad6000830184610ae8565b92915050565b6000610bbd610bce565b9050610bc98282610d17565b919050565b6000604051905090565b600067ffffffffffffffff821115610bf357610bf2610def565b5b610bfc82610e1e565b9050602081019050919050565b600081519050919050565b600082825260208201905092915050565b6000610c3082610c43565b9050919050565b60008115159050919050565b600073ffffffffffffffffffffffffffffffffffffffff82169050919050565b6000819050919050565b6000610c7882610c7f565b9050919050565b6000610c8a82610c43565b9050919050565b6000610c9c82610c63565b9050919050565b82818337600083830152505050565b60005b83811015610cd0578082015181840152602081019050610cb5565b83811115610cdf576000848401525b50505050565b60006002820490506001821680610cfd57607f821691505b60208210811415610d1157610d10610dc0565b5b50919050565b610d2082610e1e565b810181811067ffffffffffffffff82111715610d3f57610d3e610def565b5b80604052505050565b6000610d5382610c63565b91507fffffffffffffffffffffffffffffffffffffffffffffffffffffffffffffffff821415610d8657610d85610d91565b5b600182019050919050565b7f4e487b7100000000000000000000000000000000000000000000000000000000600052601160045260246000fd5b7f4e487b7100000000000000000000000000000000000000000000000000000000600052602260045260246000fd5b7f4e487b7100000000000000000000000000000000000000000000000000000000600052604160045260246000fd5b6000601f19601f8301169050919050565b7f596f75206861766520656974686572206e6f7420696e70757420616e2061707060008201527f726f707269617465206974656d206f72206974656d206e616d65206e6f74207760208201527f72697474656e20696e206c6f776572636173652e000000000000000000000000604082015250565b610ead81610c37565b8114610eb857600080fd5b5056fea26469706673582212202624ac84b34331645aaf2489fc5b54d060e5b5202ebeeaff03b06b0666f19ad064736f6c63430008040033",
  "linkReferences": {},
  "deployedLinkReferences": {}
}