{
  "_format": "hh-sol-artifact-1",
  "contractName": "RockPaperScissors",
  "sourceName": "contracts/RockPaperScissors.sol",
  "abi": [
    {
      "inputs": [
        {
          "internalType": "address",
          "name": "_approver",
          "type": "address"
        }
      ],
      "name": "_approvedLink",
      "outputs": [
        {
          "internalType": "bool",
          "name": "",
          "type": "bool"
        }
      ],
      "stateMutability": "view",
      "type": "function"
    },
    {
      "inputs": [],
      "name": "approveLink",
      "outputs": [],
      "stateMutability": "nonpayable",
      "type": "function"
    },
    {
      "inputs": [
        {
          "internalType": "address",
          "name": "",
          "type": "address"
        }
      ],
      "name": "approvedLink",
      "outputs": [
        {
          "internalType": "bool",
          "name": "",
          "type": "bool"
        }
      ],
      "stateMutability": "view",
      "type": "function"
    },
    {
      "inputs": [],
      "name": "kovanLink",
      "outputs": [
        {
          "internalType": "contract IERC20",
          "name": "",
          "type": "address"
        }
      ],
      "stateMutability": "view",
      "type": "function"
    },
    {
      "inputs": [],
      "name": "linkBalance",
      "outputs": [
        {
          "internalType": "uint256",
          "name": "",
          "type": "uint256"
        }
      ],
      "stateMutability": "view",
      "type": "function"
    },
    {
      "inputs": [],
      "name": "mostRecentWinner",
      "outputs": [
        {
          "internalType": "address",
          "name": "",
          "type": "address"
        }
      ],
      "stateMutability": "view",
      "type": "function"
    },
    {
      "inputs": [
        {
          "internalType": "string",
          "name": "_chosenItem",
          "type": "string"
        }
      ],
      "name": "playPaperRockScissors",
      "outputs": [
        {
          "internalType": "string",
          "name": "",
          "type": "string"
        }
      ],
      "stateMutability": "payable",
      "type": "function"
    },
    {
      "inputs": [],
      "name": "playerNumber",
      "outputs": [
        {
          "internalType": "uint256",
          "name": "",
          "type": "uint256"
        }
      ],
      "stateMutability": "view",
      "type": "function"
    },
    {
      "inputs": [
        {
          "internalType": "address",
          "name": "_to",
          "type": "address"
        }
      ],
      "name": "transferLink",
      "outputs": [],
      "stateMutability": "nonpayable",
      "type": "function"
    }
  ],
  "bytecode": "0x608060405273a36085f69e2889c224210f603d836748e7dc00886000806101000a81548173ffffffffffffffffffffffffffffffffffffffff021916908373ffffffffffffffffffffffffffffffffffffffff16021790555034801561006457600080fd5b506119ca806100746000396000f3fe6080604052600436106100865760003560e01c806371c92f781161005957806371c92f78146101595780639b25450214610184578063c26ecefa146101b4578063d02bfea1146101df578063d4bcc33c146101f657610086565b80632f9b19db1461008b578063346ee1bc146100c85780633dd29a31146100f1578063604d09441461011c575b600080fd5b34801561009757600080fd5b506100b260048036038101906100ad9190611225565b610221565b6040516100bf91906114a4565b60405180910390f35b3480156100d457600080fd5b506100ef60048036038101906100ea9190611225565b610277565b005b3480156100fd57600080fd5b506101066103ad565b60405161011391906114bf565b60405180910390f35b34801561012857600080fd5b50610143600480360381019061013e9190611225565b6103d1565b60405161015091906114a4565b60405180910390f35b34801561016557600080fd5b5061016e6103f1565b60405161017b91906113c9565b60405180910390f35b61019e60048036038101906101999190611277565b61041b565b6040516101ab91906114da565b60405180910390f35b3480156101c057600080fd5b506101c9610901565b6040516101d691906115aa565b60405180910390f35b3480156101eb57600080fd5b506101f46109b2565b005b34801561020257600080fd5b5061020b610b9a565b60405161021891906115aa565b60405180910390f35b6000600260008373ffffffffffffffffffffffffffffffffffffffff1673ffffffffffffffffffffffffffffffffffffffff16815260200190815260200160002060009054906101000a900460ff169050919050565b6102b76040518060400160405280601f81526020017f5472616e73666572696e6720244c494e4b2066726f6d20257320746f202573008152503383610ba0565b60008054906101000a900473ffffffffffffffffffffffffffffffffffffffff1673ffffffffffffffffffffffffffffffffffffffff166323b872dd3383640ba43b74006040518463ffffffff1660e01b81526004016103199392919061141b565b602060405180830381600087803b15801561033357600080fd5b505af1158015610347573d6000803e3d6000fd5b505050506040513d601f19601f8201168201806040525081019061036b919061124e565b506103aa6040518060400160405280601b81526020017f244c494e4b20686173206265656e207472616e736665727265642e0000000000815250610c3f565b50565b60008054906101000a900473ffffffffffffffffffffffffffffffffffffffff1681565b60026020528060005260406000206000915054906101000a900460ff1681565b6000600160009054906101000a900473ffffffffffffffffffffffffffffffffffffffff16905090565b606060011515600260003373ffffffffffffffffffffffffffffffffffffffff1673ffffffffffffffffffffffffffffffffffffffff16815260200190815260200160002060009054906101000a900460ff161515146104b0576040517f08c379a00000000000000000000000000000000000000000000000000000000081526004016104a79061158a565b60405180910390fd5b600115156104f3836040518060400160405280600481526020017f726f636b00000000000000000000000000000000000000000000000000000000815250610cd8565b1515148061054357506001151561053f836040518060400160405280600581526020017f7061706572000000000000000000000000000000000000000000000000000000815250610cd8565b1515145b8061059057506001151561058c836040518060400160405280600881526020017f73636973736f7273000000000000000000000000000000000000000000000000815250610cd8565b1515145b6105cf576040517f08c379a00000000000000000000000000000000000000000000000000000000081526004016105c69061156a565b60405180910390fd5b60008054906101000a900473ffffffffffffffffffffffffffffffffffffffff1673ffffffffffffffffffffffffffffffffffffffff166323b872dd33306706f05b59d3b200006040518463ffffffff1660e01b8152600401610634939291906113e4565b602060405180830381600087803b15801561064e57600080fd5b505af1158015610662573d6000803e3d6000fd5b505050506040513d601f19601f82011682018060405250810190610686919061124e565b50600060035411156107c957604051806080016040528060035481526020013373ffffffffffffffffffffffffffffffffffffffff168152602001838152602001600115158152506004600060035481526020019081526020016000206000820151816000015560208201518160010160006101000a81548173ffffffffffffffffffffffffffffffffffffffff021916908373ffffffffffffffffffffffffffffffffffffffff16021790555060408201518160020190805190602001906107509291906110db565b5060608201518160030160006101000a81548160ff021916908315150217905550905050600360008154809291906107879061177e565b91905055506040518060400160405280601281526020017f596f752061726520706c617965722074776f000000000000000000000000000081525090506108fc565b604051806080016040528060035481526020013373ffffffffffffffffffffffffffffffffffffffff168152602001838152602001600115158152506004600060035481526020019081526020016000206000820151816000015560208201518160010160006101000a81548173ffffffffffffffffffffffffffffffffffffffff021916908373ffffffffffffffffffffffffffffffffffffffff16021790555060408201518160020190805190602001906108879291906110db565b5060608201518160030160006101000a81548160ff021916908315150217905550905050600360008154809291906108be9061177e565b91905055506040518060400160405280601281526020017f596f752061726520706c61796572206f6e65000000000000000000000000000081525090505b919050565b60008060009054906101000a900473ffffffffffffffffffffffffffffffffffffffff1673ffffffffffffffffffffffffffffffffffffffff166370a08231336040518263ffffffff1660e01b815260040161095d91906113c9565b60206040518083038186803b15801561097557600080fd5b505afa158015610989573d6000803e3d6000fd5b505050506040513d601f19601f820116820180604052508101906109ad91906112b8565b905090565b6109d460405180606001604052806026815260200161196f6026913933611016565b60008054906101000a900473ffffffffffffffffffffffffffffffffffffffff1673ffffffffffffffffffffffffffffffffffffffff1663095ea7b3306706f05b59d3b200006040518363ffffffff1660e01b8152600401610a3792919061147b565b602060405180830381600087803b158015610a5157600080fd5b505af1158015610a65573d6000803e3d6000fd5b505050506040513d601f19601f82011682018060405250810190610a89919061124e565b506001600260003373ffffffffffffffffffffffffffffffffffffffff1673ffffffffffffffffffffffffffffffffffffffff16815260200190815260200160002060006101000a81548160ff02191690831515021790555060008054906101000a900473ffffffffffffffffffffffffffffffffffffffff1673ffffffffffffffffffffffffffffffffffffffff1663a9059cbb306729a2241af62c00006040518363ffffffff1660e01b8152600401610b45929190611452565b602060405180830381600087803b158015610b5f57600080fd5b505af1158015610b73573d6000803e3d6000fd5b505050506040513d601f19601f82011682018060405250810190610b97919061124e565b50565b60035481565b610c3a838383604051602401610bb89392919061152c565b6040516020818303038152906040527ffcec75e0000000000000000000000000000000000000000000000000000000007bffffffffffffffffffffffffffffffffffffffffffffffffffffffff19166020820180517bffffffffffffffffffffffffffffffffffffffffffffffffffffffff83818316178352505050506110b2565b505050565b610cd581604051602401610c5391906114da565b6040516020818303038152906040527f41304fac000000000000000000000000000000000000000000000000000000007bffffffffffffffffffffffffffffffffffffffffffffffffffffffff19166020820180517bffffffffffffffffffffffffffffffffffffffffffffffffffffffff83818316178352505050506110b2565b50565b60008082604051602001610cec91906114da565b6040516020818303038152906040528051906020012084604051602001610d1391906114da565b604051602081830303815290604052805190602001201490508091505092915050565b815481529060010190602001808311610d3657829003601f1682019150505050506040518060400160405280600481526020017f726f636b00000000000000000000000000000000000000000000000000000000815250610cd8565b815481529060010190602001808311610d9257829003601f1682019150505050506040518060400160405280600581526020017f7061706572000000000000000000000000000000000000000000000000000000815250610cd8565b815481529060010190602001808311610dee57829003601f1682019150505050506040518060400160405280600881526020017f73636973736f7273000000000000000000000000000000000000000000000000815250610cd8565b815481529060010190602001808311610e4a57829003601f1682019150505050506040518060400160405280600581526020017f7061706572000000000000000000000000000000000000000000000000000000815250610cd8565b815481529060010190602001808311610ea657829003601f1682019150505050506040518060400160405280600881526020017f73636973736f7273000000000000000000000000000000000000000000000000815250610cd8565b815481529060010190602001808311610f0257829003601f1682019150505050506040518060400160405280600481526020017f726f636b00000000000000000000000000000000000000000000000000000000815250610cd8565b815481529060010190602001808311610f5e57829003601f1682019150505050506040518060400160405280600481526020017f726f636b00000000000000000000000000000000000000000000000000000000815250610cd8565b815481529060010190602001808311610fba57829003601f1682019150505050506040518060400160405280600581526020017f7061706572000000000000000000000000000000000000000000000000000000815250610cd8565b6110ae828260405160240161102c9291906114fc565b6040516020818303038152906040527f319af333000000000000000000000000000000000000000000000000000000007bffffffffffffffffffffffffffffffffffffffffffffffffffffffff19166020820180517bffffffffffffffffffffffffffffffffffffffffffffffffffffffff83818316178352505050506110b2565b5050565b60008151905060006a636f6e736f6c652e6c6f679050602083016000808483855afa5050505050565b8280546110e79061171b565b90600052602060002090601f0160209004810192826111095760008555611150565b82601f1061112257805160ff1916838001178555611150565b82800160010185558215611150579182015b8281111561114f578251825591602001919060010190611134565b5b50905061115d9190611161565b5090565b5b8082111561117a576000816000905550600101611162565b5090565b600061119161118c846115ea565b6115c5565b9050828152602081018484840111156111a957600080fd5b6111b48482856116d9565b509392505050565b6000813590506111cb81611929565b92915050565b6000815190506111e081611940565b92915050565b600082601f8301126111f757600080fd5b813561120784826020860161117e565b91505092915050565b60008151905061121f81611957565b92915050565b60006020828403121561123757600080fd5b6000611245848285016111bc565b91505092915050565b60006020828403121561126057600080fd5b600061126e848285016111d1565b91505092915050565b60006020828403121561128957600080fd5b600082013567ffffffffffffffff8111156112a357600080fd5b6112af848285016111e6565b91505092915050565b6000602082840312156112ca57600080fd5b60006112d884828501611210565b91505092915050565b6112ea81611637565b82525050565b6112f981611649565b82525050565b6113088161167f565b82525050565b611317816116a3565b82525050565b611326816116b5565b82525050565b611335816116c7565b82525050565b60006113468261161b565b6113508185611626565b93506113608185602086016116e8565b61136981611854565b840191505092915050565b6000611381605483611626565b915061138c82611865565b606082019050919050565b60006113a4602883611626565b91506113af826118da565b604082019050919050565b6113c381611675565b82525050565b60006020820190506113de60008301846112e1565b92915050565b60006060820190506113f960008301866112e1565b61140660208301856112e1565b611413604083018461131d565b949350505050565b600060608201905061143060008301866112e1565b61143d60208301856112e1565b61144a604083018461132c565b949350505050565b600060408201905061146760008301856112e1565b611474602083018461130e565b9392505050565b600060408201905061149060008301856112e1565b61149d602083018461131d565b9392505050565b60006020820190506114b960008301846112f0565b92915050565b60006020820190506114d460008301846112ff565b92915050565b600060208201905081810360008301526114f4818461133b565b905092915050565b60006040820190508181036000830152611516818561133b565b905061152560208301846112e1565b9392505050565b60006060820190508181036000830152611546818661133b565b905061155560208301856112e1565b61156260408301846112e1565b949350505050565b6000602082019050818103600083015261158381611374565b9050919050565b600060208201905081810360008301526115a381611397565b9050919050565b60006020820190506115bf60008301846113ba565b92915050565b60006115cf6115e0565b90506115db828261174d565b919050565b6000604051905090565b600067ffffffffffffffff82111561160557611604611825565b5b61160e82611854565b9050602081019050919050565b600081519050919050565b600082825260208201905092915050565b600061164282611655565b9050919050565b60008115159050919050565b600073ffffffffffffffffffffffffffffffffffffffff82169050919050565b6000819050919050565b600061168a82611691565b9050919050565b600061169c82611655565b9050919050565b60006116ae82611675565b9050919050565b60006116c082611675565b9050919050565b60006116d282611675565b9050919050565b82818337600083830152505050565b60005b838110156117065780820151818401526020810190506116eb565b83811115611715576000848401525b50505050565b6000600282049050600182168061173357607f821691505b60208210811415611747576117466117f6565b5b50919050565b61175682611854565b810181811067ffffffffffffffff8211171561177557611774611825565b5b80604052505050565b600061178982611675565b91507fffffffffffffffffffffffffffffffffffffffffffffffffffffffffffffffff8214156117bc576117bb6117c7565b5b600182019050919050565b7f4e487b7100000000000000000000000000000000000000000000000000000000600052601160045260246000fd5b7f4e487b7100000000000000000000000000000000000000000000000000000000600052602260045260246000fd5b7f4e487b7100000000000000000000000000000000000000000000000000000000600052604160045260246000fd5b6000601f19601f8301169050919050565b7f596f75206861766520656974686572206e6f7420696e70757420616e2061707060008201527f726f707269617465206974656d206f72206974656d206e616d65206e6f74207760208201527f72697474656e20696e206c6f776572636173652e000000000000000000000000604082015250565b7f596f752068617665206e6f7420617070726f76656420636f6e7472616374206660008201527f6f7220244c494e4b000000000000000000000000000000000000000000000000602082015250565b61193281611637565b811461193d57600080fd5b50565b61194981611649565b811461195457600080fd5b50565b61196081611675565b811461196b57600080fd5b5056fe4d73672e73656e6465722063616c6c696e6720617070726f76654c696e6b2829206973202573a2646970667358221220c9c18b41f2a30699f2d566ab743b4d6a632d8956adf87a2c5c32212d1cb1709c64736f6c63430008040033",
  "linkReferences": {},
  "deployedLinkReferences": {}
}